{
  "address": "0xC20BEA34a73408A028A97b29D977D9010649c6E2",
  "abi": [
    {
      "inputs": [
        {
          "internalType": "bytes32",
          "name": "_root",
          "type": "bytes32"
        },
        {
          "internalType": "string",
          "name": "_name",
          "type": "string"
        },
        {
          "internalType": "string",
          "name": "_symbol",
          "type": "string"
        },
        {
          "internalType": "string[]",
          "name": "_nftTokenUris",
          "type": "string[]"
        }
      ],
      "stateMutability": "nonpayable",
      "type": "constructor"
    },
    {
      "inputs": [
        {
          "internalType": "address",
          "name": "caller",
          "type": "address"
        }
      ],
      "name": "NFTAirdrop__NFTAlreadyMinted",
      "type": "error"
    },
    {
      "inputs": [
        {
          "internalType": "address",
          "name": "caller",
          "type": "address"
        }
      ],
      "name": "NFTAirdrop__NotInTheAllowlist",
      "type": "error"
    },
    {
      "anonymous": false,
      "inputs": [
        {
          "indexed": true,
          "internalType": "address",
          "name": "owner",
          "type": "address"
        },
        {
          "indexed": true,
          "internalType": "address",
          "name": "approved",
          "type": "address"
        },
        {
          "indexed": true,
          "internalType": "uint256",
          "name": "tokenId",
          "type": "uint256"
        }
      ],
      "name": "Approval",
      "type": "event"
    },
    {
      "anonymous": false,
      "inputs": [
        {
          "indexed": true,
          "internalType": "address",
          "name": "owner",
          "type": "address"
        },
        {
          "indexed": true,
          "internalType": "address",
          "name": "operator",
          "type": "address"
        },
        {
          "indexed": false,
          "internalType": "bool",
          "name": "approved",
          "type": "bool"
        }
      ],
      "name": "ApprovalForAll",
      "type": "event"
    },
    {
      "anonymous": false,
      "inputs": [
        {
          "indexed": true,
          "internalType": "address",
          "name": "owner",
          "type": "address"
        },
        {
          "indexed": true,
          "internalType": "uint256",
          "name": "tokenId",
          "type": "uint256"
        }
      ],
      "name": "NFTMinted",
      "type": "event"
    },
    {
      "anonymous": false,
      "inputs": [
        {
          "indexed": true,
          "internalType": "address",
          "name": "previousOwner",
          "type": "address"
        },
        {
          "indexed": true,
          "internalType": "address",
          "name": "newOwner",
          "type": "address"
        }
      ],
      "name": "OwnershipTransferred",
      "type": "event"
    },
    {
      "anonymous": false,
      "inputs": [
        {
          "indexed": true,
          "internalType": "address",
          "name": "from",
          "type": "address"
        },
        {
          "indexed": true,
          "internalType": "address",
          "name": "to",
          "type": "address"
        },
        {
          "indexed": true,
          "internalType": "uint256",
          "name": "tokenId",
          "type": "uint256"
        }
      ],
      "name": "Transfer",
      "type": "event"
    },
    {
      "inputs": [
        {
          "internalType": "address",
          "name": "to",
          "type": "address"
        },
        {
          "internalType": "uint256",
          "name": "tokenId",
          "type": "uint256"
        }
      ],
      "name": "approve",
      "outputs": [],
      "stateMutability": "nonpayable",
      "type": "function"
    },
    {
      "inputs": [
        {
          "internalType": "address",
          "name": "owner",
          "type": "address"
        }
      ],
      "name": "balanceOf",
      "outputs": [
        {
          "internalType": "uint256",
          "name": "",
          "type": "uint256"
        }
      ],
      "stateMutability": "view",
      "type": "function"
    },
    {
      "inputs": [
        {
          "internalType": "address",
          "name": "caller",
          "type": "address"
        }
      ],
      "name": "getAddressToNFTMintedStatus",
      "outputs": [
        {
          "internalType": "bool",
          "name": "",
          "type": "bool"
        }
      ],
      "stateMutability": "view",
      "type": "function"
    },
    {
      "inputs": [
        {
          "internalType": "uint256",
          "name": "tokenId",
          "type": "uint256"
        }
      ],
      "name": "getApproved",
      "outputs": [
        {
          "internalType": "address",
          "name": "",
          "type": "address"
        }
      ],
      "stateMutability": "view",
      "type": "function"
    },
    {
      "inputs": [],
      "name": "getTokenId",
      "outputs": [
        {
          "internalType": "uint256",
          "name": "",
          "type": "uint256"
        }
      ],
      "stateMutability": "view",
      "type": "function"
    },
    {
      "inputs": [
        {
          "internalType": "address",
          "name": "owner",
          "type": "address"
        },
        {
          "internalType": "address",
          "name": "operator",
          "type": "address"
        }
      ],
      "name": "isApprovedForAll",
      "outputs": [
        {
          "internalType": "bool",
          "name": "",
          "type": "bool"
        }
      ],
      "stateMutability": "view",
      "type": "function"
    },
    {
      "inputs": [],
      "name": "name",
      "outputs": [
        {
          "internalType": "string",
          "name": "",
          "type": "string"
        }
      ],
      "stateMutability": "view",
      "type": "function"
    },
    {
      "inputs": [
        {
          "internalType": "uint256",
          "name": "",
          "type": "uint256"
        }
      ],
      "name": "nftTokenUris",
      "outputs": [
        {
          "internalType": "string",
          "name": "",
          "type": "string"
        }
      ],
      "stateMutability": "view",
      "type": "function"
    },
    {
      "inputs": [],
      "name": "owner",
      "outputs": [
        {
          "internalType": "address",
          "name": "",
          "type": "address"
        }
      ],
      "stateMutability": "view",
      "type": "function"
    },
    {
      "inputs": [
        {
          "internalType": "uint256",
          "name": "tokenId",
          "type": "uint256"
        }
      ],
      "name": "ownerOf",
      "outputs": [
        {
          "internalType": "address",
          "name": "",
          "type": "address"
        }
      ],
      "stateMutability": "view",
      "type": "function"
    },
    {
      "inputs": [
        {
          "internalType": "bytes32[]",
          "name": "_proof",
          "type": "bytes32[]"
        },
        {
          "internalType": "uint8",
          "name": "_tokenUriIndex",
          "type": "uint8"
        }
      ],
      "name": "preMintNFT",
      "outputs": [],
      "stateMutability": "payable",
      "type": "function"
    },
    {
      "inputs": [],
      "name": "renounceOwnership",
      "outputs": [],
      "stateMutability": "nonpayable",
      "type": "function"
    },
    {
      "inputs": [],
      "name": "root",
      "outputs": [
        {
          "internalType": "bytes32",
          "name": "",
          "type": "bytes32"
        }
      ],
      "stateMutability": "view",
      "type": "function"
    },
    {
      "inputs": [
        {
          "internalType": "address",
          "name": "from",
          "type": "address"
        },
        {
          "internalType": "address",
          "name": "to",
          "type": "address"
        },
        {
          "internalType": "uint256",
          "name": "tokenId",
          "type": "uint256"
        }
      ],
      "name": "safeTransferFrom",
      "outputs": [],
      "stateMutability": "nonpayable",
      "type": "function"
    },
    {
      "inputs": [
        {
          "internalType": "address",
          "name": "from",
          "type": "address"
        },
        {
          "internalType": "address",
          "name": "to",
          "type": "address"
        },
        {
          "internalType": "uint256",
          "name": "tokenId",
          "type": "uint256"
        },
        {
          "internalType": "bytes",
          "name": "data",
          "type": "bytes"
        }
      ],
      "name": "safeTransferFrom",
      "outputs": [],
      "stateMutability": "nonpayable",
      "type": "function"
    },
    {
      "inputs": [
        {
          "internalType": "address",
          "name": "operator",
          "type": "address"
        },
        {
          "internalType": "bool",
          "name": "approved",
          "type": "bool"
        }
      ],
      "name": "setApprovalForAll",
      "outputs": [],
      "stateMutability": "nonpayable",
      "type": "function"
    },
    {
      "inputs": [
        {
          "internalType": "bytes4",
          "name": "interfaceId",
          "type": "bytes4"
        }
      ],
      "name": "supportsInterface",
      "outputs": [
        {
          "internalType": "bool",
          "name": "",
          "type": "bool"
        }
      ],
      "stateMutability": "view",
      "type": "function"
    },
    {
      "inputs": [],
      "name": "symbol",
      "outputs": [
        {
          "internalType": "string",
          "name": "",
          "type": "string"
        }
      ],
      "stateMutability": "view",
      "type": "function"
    },
    {
      "inputs": [
        {
          "internalType": "uint256",
          "name": "tokenId",
          "type": "uint256"
        }
      ],
      "name": "tokenURI",
      "outputs": [
        {
          "internalType": "string",
          "name": "",
          "type": "string"
        }
      ],
      "stateMutability": "view",
      "type": "function"
    },
    {
      "inputs": [
        {
          "internalType": "address",
          "name": "from",
          "type": "address"
        },
        {
          "internalType": "address",
          "name": "to",
          "type": "address"
        },
        {
          "internalType": "uint256",
          "name": "tokenId",
          "type": "uint256"
        }
      ],
      "name": "transferFrom",
      "outputs": [],
      "stateMutability": "nonpayable",
      "type": "function"
    },
    {
      "inputs": [
        {
          "internalType": "address",
          "name": "newOwner",
          "type": "address"
        }
      ],
      "name": "transferOwnership",
      "outputs": [],
      "stateMutability": "nonpayable",
      "type": "function"
    }
  ],
  "transactionHash": "0xfb5ffa4a94ab57b395c87354f2b767e2c60545eacd510e30e26ac4f854e4b96e",
  "args": [
    "0x56c0a33485e05ecc428aea9841fa4f0ad9696b0f1cdb1fd8d7f83f6ea9faea76",
    "Digital Critters Collection",
    "DCC",
    [
      "ipfs://QmUDDkTccKaTzLMcNAXNFkZdZTBaYsfD71nXQrhgCPEqLu",
      "ipfs://QmQn2JWskSmQTsQsYpyM6ZAc1UXmhK5iBH1QPeifSS6328",
      "ipfs://QmWwJL8Gt52XvipKLGvFLCwkBtFuV4SZwbR8hMRx2pKPx3",
      "ipfs://QmPYg1PvGiE5QKh9NZXLNciW8oTBRSpiKpZf5Qbk4o1e4q",
      "ipfs://QmWUFF9joFTiyECgWZAiRr83aA5khzY3gkKc1PZUS2qDU2",
      "ipfs://QmXvGNQw2fbky5XgqL7uoXKmbURQpyCJcgU8sQHuoHMQn6"
    ]
  ],
  "numDeployments": 2,
  "solcInputHash": "830bd9e2e2bd52510062e166a7c730c1",
  "bytecode": "0x60a06040523480156200001157600080fd5b50604051620040b0380380620040b0833981810160405281019062000037919062000537565b828281600090816200004a919062000851565b5080600190816200005c919062000851565b5050506200007f62000073620000b260201b60201c565b620000ba60201b60201c565b836080818152505080600890805190602001906200009f92919062000180565b5060006009819055505050505062000938565b600033905090565b6000600760009054906101000a900473ffffffffffffffffffffffffffffffffffffffff16905081600760006101000a81548173ffffffffffffffffffffffffffffffffffffffff021916908373ffffffffffffffffffffffffffffffffffffffff1602179055508173ffffffffffffffffffffffffffffffffffffffff168173ffffffffffffffffffffffffffffffffffffffff167f8be0079c531659141344cd1fd0a4f28419497f9722a3daafe3b4186f6b6457e060405160405180910390a35050565b828054828255906000526020600020908101928215620001cd579160200282015b82811115620001cc578251829081620001bb919062000851565b5091602001919060010190620001a1565b5b509050620001dc9190620001e0565b5090565b5b80821115620002045760008181620001fa919062000208565b50600101620001e1565b5090565b508054620002169062000640565b6000825580601f106200022a57506200024b565b601f0160209004906000526020600020908101906200024a91906200024e565b5b50565b5b80821115620002695760008160009055506001016200024f565b5090565b6000604051905090565b600080fd5b600080fd5b6000819050919050565b620002968162000281565b8114620002a257600080fd5b50565b600081519050620002b6816200028b565b92915050565b600080fd5b600080fd5b6000601f19601f8301169050919050565b7f4e487b7100000000000000000000000000000000000000000000000000000000600052604160045260246000fd5b6200031182620002c6565b810181811067ffffffffffffffff82111715620003335762000332620002d7565b5b80604052505050565b6000620003486200026d565b905062000356828262000306565b919050565b600067ffffffffffffffff821115620003795762000378620002d7565b5b6200038482620002c6565b9050602081019050919050565b60005b83811015620003b157808201518184015260208101905062000394565b60008484015250505050565b6000620003d4620003ce846200035b565b6200033c565b905082815260208101848484011115620003f357620003f2620002c1565b5b6200040084828562000391565b509392505050565b600082601f83011262000420576200041f620002bc565b5b815162000432848260208601620003bd565b91505092915050565b600067ffffffffffffffff821115620004595762000458620002d7565b5b602082029050602081019050919050565b600080fd5b60006200048662000480846200043b565b6200033c565b90508083825260208201905060208402830185811115620004ac57620004ab6200046a565b5b835b81811015620004fa57805167ffffffffffffffff811115620004d557620004d4620002bc565b5b808601620004e4898262000408565b85526020850194505050602081019050620004ae565b5050509392505050565b600082601f8301126200051c576200051b620002bc565b5b81516200052e8482602086016200046f565b91505092915050565b6000806000806080858703121562000554576200055362000277565b5b60006200056487828801620002a5565b945050602085015167ffffffffffffffff8111156200058857620005876200027c565b5b620005968782880162000408565b935050604085015167ffffffffffffffff811115620005ba57620005b96200027c565b5b620005c88782880162000408565b925050606085015167ffffffffffffffff811115620005ec57620005eb6200027c565b5b620005fa8782880162000504565b91505092959194509250565b600081519050919050565b7f4e487b7100000000000000000000000000000000000000000000000000000000600052602260045260246000fd5b600060028204905060018216806200065957607f821691505b6020821081036200066f576200066e62000611565b5b50919050565b60008190508160005260206000209050919050565b60006020601f8301049050919050565b600082821b905092915050565b600060088302620006d97fffffffffffffffffffffffffffffffffffffffffffffffffffffffffffffffff826200069a565b620006e586836200069a565b95508019841693508086168417925050509392505050565b6000819050919050565b6000819050919050565b6000620007326200072c6200072684620006fd565b62000707565b620006fd565b9050919050565b6000819050919050565b6200074e8362000711565b620007666200075d8262000739565b848454620006a7565b825550505050565b600090565b6200077d6200076e565b6200078a81848462000743565b505050565b5b81811015620007b257620007a660008262000773565b60018101905062000790565b5050565b601f8211156200080157620007cb8162000675565b620007d6846200068a565b81016020851015620007e6578190505b620007fe620007f5856200068a565b8301826200078f565b50505b505050565b600082821c905092915050565b6000620008266000198460080262000806565b1980831691505092915050565b600062000841838362000813565b9150826002028217905092915050565b6200085c8262000606565b67ffffffffffffffff811115620008785762000877620002d7565b5b62000884825462000640565b62000891828285620007b6565b600060209050601f831160018114620008c95760008415620008b4578287015190505b620008c0858262000833565b86555062000930565b601f198416620008d98662000675565b60005b828110156200090357848901518255600182019150602085019450602081019050620008dc565b868310156200092357848901516200091f601f89168262000813565b8355505b6001600288020188555050505b505050505050565b6080516137556200095b60003960008181610ff401526115e201526137556000f3fe60806040526004361061012a5760003560e01c806370a08231116100ab578063b88d4fde1161006f578063b88d4fde146103e3578063c870755f1461040c578063c87b56dd14610449578063e985e9c514610486578063ebf0c717146104c3578063f2fde38b146104ee5761012a565b806370a0823114610310578063715018a61461034d5780638da5cb5b1461036457806395d89b411461038f578063a22cb465146103ba5761012a565b80631888cfa5116100f25780631888cfa51461022857806323b872dd1461026557806342842e0e1461028e5780636352211e146102b75780636feb4c9e146102f45761012a565b8063010a38f51461012f57806301ffc9a71461015a57806306fdde0314610197578063081812fc146101c2578063095ea7b3146101ff575b600080fd5b34801561013b57600080fd5b50610144610517565b60405161015191906122c2565b60405180910390f35b34801561016657600080fd5b50610181600480360381019061017c9190612349565b610521565b60405161018e9190612391565b60405180910390f35b3480156101a357600080fd5b506101ac610603565b6040516101b9919061243c565b60405180910390f35b3480156101ce57600080fd5b506101e960048036038101906101e4919061248a565b610695565b6040516101f691906124f8565b60405180910390f35b34801561020b57600080fd5b506102266004803603810190610221919061253f565b6106db565b005b34801561023457600080fd5b5061024f600480360381019061024a919061248a565b6107f2565b60405161025c919061243c565b60405180910390f35b34801561027157600080fd5b5061028c6004803603810190610287919061257f565b61089e565b005b34801561029a57600080fd5b506102b560048036038101906102b0919061257f565b6108fe565b005b3480156102c357600080fd5b506102de60048036038101906102d9919061248a565b61091e565b6040516102eb91906124f8565b60405180910390f35b61030e60048036038101906103099190612789565b6109a4565b005b34801561031c57600080fd5b50610337600480360381019061033291906127e5565b610bf7565b60405161034491906122c2565b60405180910390f35b34801561035957600080fd5b50610362610cae565b005b34801561037057600080fd5b50610379610cc2565b60405161038691906124f8565b60405180910390f35b34801561039b57600080fd5b506103a4610cec565b6040516103b1919061243c565b60405180910390f35b3480156103c657600080fd5b506103e160048036038101906103dc919061283e565b610d7e565b005b3480156103ef57600080fd5b5061040a60048036038101906104059190612933565b610d94565b005b34801561041857600080fd5b50610433600480360381019061042e91906127e5565b610df6565b6040516104409190612391565b60405180910390f35b34801561045557600080fd5b50610470600480360381019061046b919061248a565b610e4c565b60405161047d919061243c565b60405180910390f35b34801561049257600080fd5b506104ad60048036038101906104a891906129b6565b610f5e565b6040516104ba9190612391565b60405180910390f35b3480156104cf57600080fd5b506104d8610ff2565b6040516104e59190612a05565b60405180910390f35b3480156104fa57600080fd5b50610515600480360381019061051091906127e5565b611016565b005b6000600954905090565b60007f80ac58cd000000000000000000000000000000000000000000000000000000007bffffffffffffffffffffffffffffffffffffffffffffffffffffffff1916827bffffffffffffffffffffffffffffffffffffffffffffffffffffffff191614806105ec57507f5b5e139f000000000000000000000000000000000000000000000000000000007bffffffffffffffffffffffffffffffffffffffffffffffffffffffff1916827bffffffffffffffffffffffffffffffffffffffffffffffffffffffff1916145b806105fc57506105fb82611099565b5b9050919050565b60606000805461061290612a4f565b80601f016020809104026020016040519081016040528092919081815260200182805461063e90612a4f565b801561068b5780601f106106605761010080835404028352916020019161068b565b820191906000526020600020905b81548152906001019060200180831161066e57829003601f168201915b5050505050905090565b60006106a082611103565b6004600083815260200190815260200160002060009054906101000a900473ffffffffffffffffffffffffffffffffffffffff169050919050565b60006106e68261091e565b90508073ffffffffffffffffffffffffffffffffffffffff168373ffffffffffffffffffffffffffffffffffffffff1603610756576040517f08c379a000000000000000000000000000000000000000000000000000000000815260040161074d90612af2565b60405180910390fd5b8073ffffffffffffffffffffffffffffffffffffffff1661077561114e565b73ffffffffffffffffffffffffffffffffffffffff1614806107a457506107a38161079e61114e565b610f5e565b5b6107e3576040517f08c379a00000000000000000000000000000000000000000000000000000000081526004016107da90612b84565b60405180910390fd5b6107ed8383611156565b505050565b6008818154811061080257600080fd5b90600052602060002001600091509050805461081d90612a4f565b80601f016020809104026020016040519081016040528092919081815260200182805461084990612a4f565b80156108965780601f1061086b57610100808354040283529160200191610896565b820191906000526020600020905b81548152906001019060200180831161087957829003601f168201915b505050505081565b6108af6108a961114e565b8261120f565b6108ee576040517f08c379a00000000000000000000000000000000000000000000000000000000081526004016108e590612c16565b60405180910390fd5b6108f98383836112a4565b505050565b61091983838360405180602001604052806000815250610d94565b505050565b60008061092a8361159d565b9050600073ffffffffffffffffffffffffffffffffffffffff168173ffffffffffffffffffffffffffffffffffffffff160361099b576040517f08c379a000000000000000000000000000000000000000000000000000000000815260040161099290612c82565b60405180910390fd5b80915050919050565b600a60003373ffffffffffffffffffffffffffffffffffffffff1673ffffffffffffffffffffffffffffffffffffffff16815260200190815260200160002060009054906101000a900460ff1615610a3357336040517fc318867a000000000000000000000000000000000000000000000000000000008152600401610a2a91906124f8565b60405180910390fd5b610a3c826115da565b610a7d57336040517f5cddcfb1000000000000000000000000000000000000000000000000000000008152600401610a7491906124f8565b60405180910390fd5b6001600a60003373ffffffffffffffffffffffffffffffffffffffff1673ffffffffffffffffffffffffffffffffffffffff16815260200190815260200160002060006101000a81548160ff021916908315150217905550600060095490506001600954610aeb9190612cd1565b600981905550610afb3382611634565b610bae8160088460ff1681548110610b1657610b15612d05565b5b906000526020600020018054610b2b90612a4f565b80601f0160208091040260200160405190810160405280929190818152602001828054610b5790612a4f565b8015610ba45780601f10610b7957610100808354040283529160200191610ba4565b820191906000526020600020905b815481529060010190602001808311610b8757829003601f168201915b5050505050611652565b803373ffffffffffffffffffffffffffffffffffffffff167f4cc0a9c4a99ddc700de1af2c9f916a7cbfdb71f14801ccff94061ad1ef8a804060405160405180910390a3505050565b60008073ffffffffffffffffffffffffffffffffffffffff168273ffffffffffffffffffffffffffffffffffffffff1603610c67576040517f08c379a0000000000000000000000000000000000000000000000000000000008152600401610c5e90612da6565b60405180910390fd5b600360008373ffffffffffffffffffffffffffffffffffffffff1673ffffffffffffffffffffffffffffffffffffffff168152602001908152602001600020549050919050565b610cb66116bf565b610cc0600061173d565b565b6000600760009054906101000a900473ffffffffffffffffffffffffffffffffffffffff16905090565b606060018054610cfb90612a4f565b80601f0160208091040260200160405190810160405280929190818152602001828054610d2790612a4f565b8015610d745780601f10610d4957610100808354040283529160200191610d74565b820191906000526020600020905b815481529060010190602001808311610d5757829003601f168201915b5050505050905090565b610d90610d8961114e565b8383611803565b5050565b610da5610d9f61114e565b8361120f565b610de4576040517f08c379a0000000000000000000000000000000000000000000000000000000008152600401610ddb90612c16565b60405180910390fd5b610df08484848461196f565b50505050565b6000600a60008373ffffffffffffffffffffffffffffffffffffffff1673ffffffffffffffffffffffffffffffffffffffff16815260200190815260200160002060009054906101000a900460ff169050919050565b6060610e5782611103565b6000600660008481526020019081526020016000208054610e7790612a4f565b80601f0160208091040260200160405190810160405280929190818152602001828054610ea390612a4f565b8015610ef05780601f10610ec557610100808354040283529160200191610ef0565b820191906000526020600020905b815481529060010190602001808311610ed357829003601f168201915b505050505090506000610f016119cb565b90506000815103610f16578192505050610f59565b600082511115610f4b578082604051602001610f33929190612e02565b60405160208183030381529060405292505050610f59565b610f54846119e2565b925050505b919050565b6000600560008473ffffffffffffffffffffffffffffffffffffffff1673ffffffffffffffffffffffffffffffffffffffff16815260200190815260200160002060008373ffffffffffffffffffffffffffffffffffffffff1673ffffffffffffffffffffffffffffffffffffffff16815260200190815260200160002060009054906101000a900460ff16905092915050565b7f000000000000000000000000000000000000000000000000000000000000000081565b61101e6116bf565b600073ffffffffffffffffffffffffffffffffffffffff168173ffffffffffffffffffffffffffffffffffffffff160361108d576040517f08c379a000000000000000000000000000000000000000000000000000000000815260040161108490612e98565b60405180910390fd5b6110968161173d565b50565b60007f01ffc9a7000000000000000000000000000000000000000000000000000000007bffffffffffffffffffffffffffffffffffffffffffffffffffffffff1916827bffffffffffffffffffffffffffffffffffffffffffffffffffffffff1916149050919050565b61110c81611a4a565b61114b576040517f08c379a000000000000000000000000000000000000000000000000000000000815260040161114290612c82565b60405180910390fd5b50565b600033905090565b816004600083815260200190815260200160002060006101000a81548173ffffffffffffffffffffffffffffffffffffffff021916908373ffffffffffffffffffffffffffffffffffffffff160217905550808273ffffffffffffffffffffffffffffffffffffffff166111c98361091e565b73ffffffffffffffffffffffffffffffffffffffff167f8c5be1e5ebec7d5bd14f71427d1e84f3dd0314c0f7b2291e5b200ac8c7c3b92560405160405180910390a45050565b60008061121b8361091e565b90508073ffffffffffffffffffffffffffffffffffffffff168473ffffffffffffffffffffffffffffffffffffffff16148061125d575061125c8185610f5e565b5b8061129b57508373ffffffffffffffffffffffffffffffffffffffff1661128384610695565b73ffffffffffffffffffffffffffffffffffffffff16145b91505092915050565b8273ffffffffffffffffffffffffffffffffffffffff166112c48261091e565b73ffffffffffffffffffffffffffffffffffffffff161461131a576040517f08c379a000000000000000000000000000000000000000000000000000000000815260040161131190612f2a565b60405180910390fd5b600073ffffffffffffffffffffffffffffffffffffffff168273ffffffffffffffffffffffffffffffffffffffff1603611389576040517f08c379a000000000000000000000000000000000000000000000000000000000815260040161138090612fbc565b60405180910390fd5b6113968383836001611a8b565b8273ffffffffffffffffffffffffffffffffffffffff166113b68261091e565b73ffffffffffffffffffffffffffffffffffffffff161461140c576040517f08c379a000000000000000000000000000000000000000000000000000000000815260040161140390612f2a565b60405180910390fd5b6004600082815260200190815260200160002060006101000a81549073ffffffffffffffffffffffffffffffffffffffff02191690556001600360008573ffffffffffffffffffffffffffffffffffffffff1673ffffffffffffffffffffffffffffffffffffffff168152602001908152602001600020600082825403925050819055506001600360008473ffffffffffffffffffffffffffffffffffffffff1673ffffffffffffffffffffffffffffffffffffffff16815260200190815260200160002060008282540192505081905550816002600083815260200190815260200160002060006101000a81548173ffffffffffffffffffffffffffffffffffffffff021916908373ffffffffffffffffffffffffffffffffffffffff160217905550808273ffffffffffffffffffffffffffffffffffffffff168473ffffffffffffffffffffffffffffffffffffffff167fddf252ad1be2c89b69c2b068fc378daa952ba7f163c4a11628f55a4df523b3ef60405160405180910390a46115988383836001611bb1565b505050565b60006002600083815260200190815260200160002060009054906101000a900473ffffffffffffffffffffffffffffffffffffffff169050919050565b600061162d827f0000000000000000000000000000000000000000000000000000000000000000336040516020016116129190613024565b60405160208183030381529060405280519060200120611bb7565b9050919050565b61164e828260405180602001604052806000815250611bce565b5050565b61165b82611a4a565b61169a576040517f08c379a0000000000000000000000000000000000000000000000000000000008152600401611691906130b1565b60405180910390fd5b806006600084815260200190815260200160002090816116ba919061327d565b505050565b6116c761114e565b73ffffffffffffffffffffffffffffffffffffffff166116e5610cc2565b73ffffffffffffffffffffffffffffffffffffffff161461173b576040517f08c379a00000000000000000000000000000000000000000000000000000000081526004016117329061339b565b60405180910390fd5b565b6000600760009054906101000a900473ffffffffffffffffffffffffffffffffffffffff16905081600760006101000a81548173ffffffffffffffffffffffffffffffffffffffff021916908373ffffffffffffffffffffffffffffffffffffffff1602179055508173ffffffffffffffffffffffffffffffffffffffff168173ffffffffffffffffffffffffffffffffffffffff167f8be0079c531659141344cd1fd0a4f28419497f9722a3daafe3b4186f6b6457e060405160405180910390a35050565b8173ffffffffffffffffffffffffffffffffffffffff168373ffffffffffffffffffffffffffffffffffffffff1603611871576040517f08c379a000000000000000000000000000000000000000000000000000000000815260040161186890613407565b60405180910390fd5b80600560008573ffffffffffffffffffffffffffffffffffffffff1673ffffffffffffffffffffffffffffffffffffffff16815260200190815260200160002060008473ffffffffffffffffffffffffffffffffffffffff1673ffffffffffffffffffffffffffffffffffffffff16815260200190815260200160002060006101000a81548160ff0219169083151502179055508173ffffffffffffffffffffffffffffffffffffffff168373ffffffffffffffffffffffffffffffffffffffff167f17307eab39ab6107e8899845ad3d59bd9653f200f220920489ca2b5937696c31836040516119629190612391565b60405180910390a3505050565b61197a8484846112a4565b61198684848484611c29565b6119c5576040517f08c379a00000000000000000000000000000000000000000000000000000000081526004016119bc90613499565b60405180910390fd5b50505050565b606060405180602001604052806000815250905090565b60606119ed82611103565b60006119f76119cb565b90506000815111611a175760405180602001604052806000815250611a42565b80611a2184611db0565b604051602001611a32929190612e02565b6040516020818303038152906040525b915050919050565b60008073ffffffffffffffffffffffffffffffffffffffff16611a6c8361159d565b73ffffffffffffffffffffffffffffffffffffffff1614159050919050565b6001811115611bab57600073ffffffffffffffffffffffffffffffffffffffff168473ffffffffffffffffffffffffffffffffffffffff1614611b1f5780600360008673ffffffffffffffffffffffffffffffffffffffff1673ffffffffffffffffffffffffffffffffffffffff1681526020019081526020016000206000828254611b1791906134b9565b925050819055505b600073ffffffffffffffffffffffffffffffffffffffff168373ffffffffffffffffffffffffffffffffffffffff1614611baa5780600360008573ffffffffffffffffffffffffffffffffffffffff1673ffffffffffffffffffffffffffffffffffffffff1681526020019081526020016000206000828254611ba29190612cd1565b925050819055505b5b50505050565b50505050565b600082611bc48584611e7e565b1490509392505050565b611bd88383611ed4565b611be56000848484611c29565b611c24576040517f08c379a0000000000000000000000000000000000000000000000000000000008152600401611c1b90613499565b60405180910390fd5b505050565b6000611c4a8473ffffffffffffffffffffffffffffffffffffffff166120f1565b15611da3578373ffffffffffffffffffffffffffffffffffffffff1663150b7a02611c7361114e565b8786866040518563ffffffff1660e01b8152600401611c959493929190613542565b6020604051808303816000875af1925050508015611cd157506040513d601f19601f82011682018060405250810190611cce91906135a3565b60015b611d53573d8060008114611d01576040519150601f19603f3d011682016040523d82523d6000602084013e611d06565b606091505b506000815103611d4b576040517f08c379a0000000000000000000000000000000000000000000000000000000008152600401611d4290613499565b60405180910390fd5b805181602001fd5b63150b7a0260e01b7bffffffffffffffffffffffffffffffffffffffffffffffffffffffff1916817bffffffffffffffffffffffffffffffffffffffffffffffffffffffff191614915050611da8565b600190505b949350505050565b606060006001611dbf84612114565b01905060008167ffffffffffffffff811115611dde57611ddd6125d7565b5b6040519080825280601f01601f191660200182016040528015611e105781602001600182028036833780820191505090505b509050600082602001820190505b600115611e73578080600190039150507f3031323334353637383961626364656600000000000000000000000000000000600a86061a8153600a8581611e6757611e666135d0565b5b04945060008503611e1e575b819350505050919050565b60008082905060005b8451811015611ec957611eb482868381518110611ea757611ea6612d05565b5b6020026020010151612267565b91508080611ec1906135ff565b915050611e87565b508091505092915050565b600073ffffffffffffffffffffffffffffffffffffffff168273ffffffffffffffffffffffffffffffffffffffff1603611f43576040517f08c379a0000000000000000000000000000000000000000000000000000000008152600401611f3a90613693565b60405180910390fd5b611f4c81611a4a565b15611f8c576040517f08c379a0000000000000000000000000000000000000000000000000000000008152600401611f83906136ff565b60405180910390fd5b611f9a600083836001611a8b565b611fa381611a4a565b15611fe3576040517f08c379a0000000000000000000000000000000000000000000000000000000008152600401611fda906136ff565b60405180910390fd5b6001600360008473ffffffffffffffffffffffffffffffffffffffff1673ffffffffffffffffffffffffffffffffffffffff16815260200190815260200160002060008282540192505081905550816002600083815260200190815260200160002060006101000a81548173ffffffffffffffffffffffffffffffffffffffff021916908373ffffffffffffffffffffffffffffffffffffffff160217905550808273ffffffffffffffffffffffffffffffffffffffff16600073ffffffffffffffffffffffffffffffffffffffff167fddf252ad1be2c89b69c2b068fc378daa952ba7f163c4a11628f55a4df523b3ef60405160405180910390a46120ed600083836001611bb1565b5050565b6000808273ffffffffffffffffffffffffffffffffffffffff163b119050919050565b600080600090507a184f03e93ff9f4daa797ed6e38ed64bf6a1f0100000000000000008310612172577a184f03e93ff9f4daa797ed6e38ed64bf6a1f0100000000000000008381612168576121676135d0565b5b0492506040810190505b6d04ee2d6d415b85acef810000000083106121af576d04ee2d6d415b85acef810000000083816121a5576121a46135d0565b5b0492506020810190505b662386f26fc1000083106121de57662386f26fc1000083816121d4576121d36135d0565b5b0492506010810190505b6305f5e1008310612207576305f5e10083816121fd576121fc6135d0565b5b0492506008810190505b612710831061222c576127108381612222576122216135d0565b5b0492506004810190505b6064831061224f5760648381612245576122446135d0565b5b0492506002810190505b600a831061225e576001810190505b80915050919050565b600081831061227f5761227a8284612292565b61228a565b6122898383612292565b5b905092915050565b600082600052816020526040600020905092915050565b6000819050919050565b6122bc816122a9565b82525050565b60006020820190506122d760008301846122b3565b92915050565b6000604051905090565b600080fd5b600080fd5b60007fffffffff0000000000000000000000000000000000000000000000000000000082169050919050565b612326816122f1565b811461233157600080fd5b50565b6000813590506123438161231d565b92915050565b60006020828403121561235f5761235e6122e7565b5b600061236d84828501612334565b91505092915050565b60008115159050919050565b61238b81612376565b82525050565b60006020820190506123a66000830184612382565b92915050565b600081519050919050565b600082825260208201905092915050565b60005b838110156123e65780820151818401526020810190506123cb565b60008484015250505050565b6000601f19601f8301169050919050565b600061240e826123ac565b61241881856123b7565b93506124288185602086016123c8565b612431816123f2565b840191505092915050565b600060208201905081810360008301526124568184612403565b905092915050565b612467816122a9565b811461247257600080fd5b50565b6000813590506124848161245e565b92915050565b6000602082840312156124a05761249f6122e7565b5b60006124ae84828501612475565b91505092915050565b600073ffffffffffffffffffffffffffffffffffffffff82169050919050565b60006124e2826124b7565b9050919050565b6124f2816124d7565b82525050565b600060208201905061250d60008301846124e9565b92915050565b61251c816124d7565b811461252757600080fd5b50565b60008135905061253981612513565b92915050565b60008060408385031215612556576125556122e7565b5b60006125648582860161252a565b925050602061257585828601612475565b9150509250929050565b600080600060608486031215612598576125976122e7565b5b60006125a68682870161252a565b93505060206125b78682870161252a565b92505060406125c886828701612475565b9150509250925092565b600080fd5b7f4e487b7100000000000000000000000000000000000000000000000000000000600052604160045260246000fd5b61260f826123f2565b810181811067ffffffffffffffff8211171561262e5761262d6125d7565b5b80604052505050565b60006126416122dd565b905061264d8282612606565b919050565b600067ffffffffffffffff82111561266d5761266c6125d7565b5b602082029050602081019050919050565b600080fd5b6000819050919050565b61269681612683565b81146126a157600080fd5b50565b6000813590506126b38161268d565b92915050565b60006126cc6126c784612652565b612637565b905080838252602082019050602084028301858111156126ef576126ee61267e565b5b835b81811015612718578061270488826126a4565b8452602084019350506020810190506126f1565b5050509392505050565b600082601f830112612737576127366125d2565b5b81356127478482602086016126b9565b91505092915050565b600060ff82169050919050565b61276681612750565b811461277157600080fd5b50565b6000813590506127838161275d565b92915050565b600080604083850312156127a05761279f6122e7565b5b600083013567ffffffffffffffff8111156127be576127bd6122ec565b5b6127ca85828601612722565b92505060206127db85828601612774565b9150509250929050565b6000602082840312156127fb576127fa6122e7565b5b60006128098482850161252a565b91505092915050565b61281b81612376565b811461282657600080fd5b50565b60008135905061283881612812565b92915050565b60008060408385031215612855576128546122e7565b5b60006128638582860161252a565b925050602061287485828601612829565b9150509250929050565b600080fd5b600067ffffffffffffffff82111561289e5761289d6125d7565b5b6128a7826123f2565b9050602081019050919050565b82818337600083830152505050565b60006128d66128d184612883565b612637565b9050828152602081018484840111156128f2576128f161287e565b5b6128fd8482856128b4565b509392505050565b600082601f83011261291a576129196125d2565b5b813561292a8482602086016128c3565b91505092915050565b6000806000806080858703121561294d5761294c6122e7565b5b600061295b8782880161252a565b945050602061296c8782880161252a565b935050604061297d87828801612475565b925050606085013567ffffffffffffffff81111561299e5761299d6122ec565b5b6129aa87828801612905565b91505092959194509250565b600080604083850312156129cd576129cc6122e7565b5b60006129db8582860161252a565b92505060206129ec8582860161252a565b9150509250929050565b6129ff81612683565b82525050565b6000602082019050612a1a60008301846129f6565b92915050565b7f4e487b7100000000000000000000000000000000000000000000000000000000600052602260045260246000fd5b60006002820490506001821680612a6757607f821691505b602082108103612a7a57612a79612a20565b5b50919050565b7f4552433732313a20617070726f76616c20746f2063757272656e74206f776e6560008201527f7200000000000000000000000000000000000000000000000000000000000000602082015250565b6000612adc6021836123b7565b9150612ae782612a80565b604082019050919050565b60006020820190508181036000830152612b0b81612acf565b9050919050565b7f4552433732313a20617070726f76652063616c6c6572206973206e6f7420746f60008201527f6b656e206f776e6572206f7220617070726f76656420666f7220616c6c000000602082015250565b6000612b6e603d836123b7565b9150612b7982612b12565b604082019050919050565b60006020820190508181036000830152612b9d81612b61565b9050919050565b7f4552433732313a2063616c6c6572206973206e6f7420746f6b656e206f776e6560008201527f72206f7220617070726f76656400000000000000000000000000000000000000602082015250565b6000612c00602d836123b7565b9150612c0b82612ba4565b604082019050919050565b60006020820190508181036000830152612c2f81612bf3565b9050919050565b7f4552433732313a20696e76616c696420746f6b656e2049440000000000000000600082015250565b6000612c6c6018836123b7565b9150612c7782612c36565b602082019050919050565b60006020820190508181036000830152612c9b81612c5f565b9050919050565b7f4e487b7100000000000000000000000000000000000000000000000000000000600052601160045260246000fd5b6000612cdc826122a9565b9150612ce7836122a9565b9250828201905080821115612cff57612cfe612ca2565b5b92915050565b7f4e487b7100000000000000000000000000000000000000000000000000000000600052603260045260246000fd5b7f4552433732313a2061646472657373207a65726f206973206e6f74206120766160008201527f6c6964206f776e65720000000000000000000000000000000000000000000000602082015250565b6000612d906029836123b7565b9150612d9b82612d34565b604082019050919050565b60006020820190508181036000830152612dbf81612d83565b9050919050565b600081905092915050565b6000612ddc826123ac565b612de68185612dc6565b9350612df68185602086016123c8565b80840191505092915050565b6000612e0e8285612dd1565b9150612e1a8284612dd1565b91508190509392505050565b7f4f776e61626c653a206e6577206f776e657220697320746865207a65726f206160008201527f6464726573730000000000000000000000000000000000000000000000000000602082015250565b6000612e826026836123b7565b9150612e8d82612e26565b604082019050919050565b60006020820190508181036000830152612eb181612e75565b9050919050565b7f4552433732313a207472616e736665722066726f6d20696e636f72726563742060008201527f6f776e6572000000000000000000000000000000000000000000000000000000602082015250565b6000612f146025836123b7565b9150612f1f82612eb8565b604082019050919050565b60006020820190508181036000830152612f4381612f07565b9050919050565b7f4552433732313a207472616e7366657220746f20746865207a65726f2061646460008201527f7265737300000000000000000000000000000000000000000000000000000000602082015250565b6000612fa66024836123b7565b9150612fb182612f4a565b604082019050919050565b60006020820190508181036000830152612fd581612f99565b9050919050565b60008160601b9050919050565b6000612ff482612fdc565b9050919050565b600061300682612fe9565b9050919050565b61301e613019826124d7565b612ffb565b82525050565b6000613030828461300d565b60148201915081905092915050565b7f45524337323155524953746f726167653a2055524920736574206f66206e6f6e60008201527f6578697374656e7420746f6b656e000000000000000000000000000000000000602082015250565b600061309b602e836123b7565b91506130a68261303f565b604082019050919050565b600060208201905081810360008301526130ca8161308e565b9050919050565b60008190508160005260206000209050919050565b60006020601f8301049050919050565b600082821b905092915050565b6000600883026131337fffffffffffffffffffffffffffffffffffffffffffffffffffffffffffffffff826130f6565b61313d86836130f6565b95508019841693508086168417925050509392505050565b6000819050919050565b600061317a613175613170846122a9565b613155565b6122a9565b9050919050565b6000819050919050565b6131948361315f565b6131a86131a082613181565b848454613103565b825550505050565b600090565b6131bd6131b0565b6131c881848461318b565b505050565b5b818110156131ec576131e16000826131b5565b6001810190506131ce565b5050565b601f82111561323157613202816130d1565b61320b846130e6565b8101602085101561321a578190505b61322e613226856130e6565b8301826131cd565b50505b505050565b600082821c905092915050565b600061325460001984600802613236565b1980831691505092915050565b600061326d8383613243565b9150826002028217905092915050565b613286826123ac565b67ffffffffffffffff81111561329f5761329e6125d7565b5b6132a98254612a4f565b6132b48282856131f0565b600060209050601f8311600181146132e757600084156132d5578287015190505b6132df8582613261565b865550613347565b601f1984166132f5866130d1565b60005b8281101561331d578489015182556001820191506020850194506020810190506132f8565b8683101561333a5784890151613336601f891682613243565b8355505b6001600288020188555050505b505050505050565b7f4f776e61626c653a2063616c6c6572206973206e6f7420746865206f776e6572600082015250565b60006133856020836123b7565b91506133908261334f565b602082019050919050565b600060208201905081810360008301526133b481613378565b9050919050565b7f4552433732313a20617070726f766520746f2063616c6c657200000000000000600082015250565b60006133f16019836123b7565b91506133fc826133bb565b602082019050919050565b60006020820190508181036000830152613420816133e4565b9050919050565b7f4552433732313a207472616e7366657220746f206e6f6e20455243373231526560008201527f63656976657220696d706c656d656e7465720000000000000000000000000000602082015250565b60006134836032836123b7565b915061348e82613427565b604082019050919050565b600060208201905081810360008301526134b281613476565b9050919050565b60006134c4826122a9565b91506134cf836122a9565b92508282039050818111156134e7576134e6612ca2565b5b92915050565b600081519050919050565b600082825260208201905092915050565b6000613514826134ed565b61351e81856134f8565b935061352e8185602086016123c8565b613537816123f2565b840191505092915050565b600060808201905061355760008301876124e9565b61356460208301866124e9565b61357160408301856122b3565b81810360608301526135838184613509565b905095945050505050565b60008151905061359d8161231d565b92915050565b6000602082840312156135b9576135b86122e7565b5b60006135c78482850161358e565b91505092915050565b7f4e487b7100000000000000000000000000000000000000000000000000000000600052601260045260246000fd5b600061360a826122a9565b91507fffffffffffffffffffffffffffffffffffffffffffffffffffffffffffffffff820361363c5761363b612ca2565b5b600182019050919050565b7f4552433732313a206d696e7420746f20746865207a65726f2061646472657373600082015250565b600061367d6020836123b7565b915061368882613647565b602082019050919050565b600060208201905081810360008301526136ac81613670565b9050919050565b7f4552433732313a20746f6b656e20616c7265616479206d696e74656400000000600082015250565b60006136e9601c836123b7565b91506136f4826136b3565b602082019050919050565b60006020820190508181036000830152613718816136dc565b905091905056fea26469706673582212208f0fa62a9ce182d51694f4282b2be3c19a3c654d8e88396b21497873b825654b64736f6c63430008110033",
  "devdoc": {
    "events": {
      "NFTMinted(address,uint256)": {
        "details": "This event will be emitted inside mintNft function.",
        "params": {
          "owner": "will be address who call the mintNft function.",
          "tokenId": "will be the token id which user will have minted."
        }
      }
    },
    "kind": "dev",
    "methods": {
      "approve(address,uint256)": {
        "details": "See {IERC721-approve}."
      },
      "balanceOf(address)": {
        "details": "See {IERC721-balanceOf}."
      },
      "constructor": {
        "params": {
          "_name": "will be the name of the token.",
          "_nftTokenUris": "will be the token metadata ipfs hashes.",
          "_root": "will be the root hash of the merkle tree.",
          "_symbol": "will be the symbol of the token."
        }
      },
      "getApproved(uint256)": {
        "details": "See {IERC721-getApproved}."
      },
      "isApprovedForAll(address,address)": {
        "details": "See {IERC721-isApprovedForAll}."
      },
      "name()": {
        "details": "See {IERC721Metadata-name}."
      },
      "owner()": {
        "details": "Returns the address of the current owner."
      },
      "ownerOf(uint256)": {
        "details": "See {IERC721-ownerOf}."
      },
      "preMintNFT(bytes32[],uint8)": {
        "params": {
          "_proof": "will be the hex value of proof with the give caller address generated from the merkle tree.",
          "_tokenUriIndex": "will be the index number of NFT Uri select by the user."
        }
      },
      "renounceOwnership()": {
        "details": "Leaves the contract without owner. It will not be possible to call `onlyOwner` functions anymore. Can only be called by the current owner. NOTE: Renouncing ownership will leave the contract without an owner, thereby removing any functionality that is only available to the owner."
      },
      "safeTransferFrom(address,address,uint256)": {
        "details": "See {IERC721-safeTransferFrom}."
      },
      "safeTransferFrom(address,address,uint256,bytes)": {
        "details": "See {IERC721-safeTransferFrom}."
      },
      "setApprovalForAll(address,bool)": {
        "details": "See {IERC721-setApprovalForAll}."
      },
      "supportsInterface(bytes4)": {
        "details": "See {IERC165-supportsInterface}."
      },
      "symbol()": {
        "details": "See {IERC721Metadata-symbol}."
      },
      "tokenURI(uint256)": {
        "details": "See {IERC721Metadata-tokenURI}."
      },
      "transferFrom(address,address,uint256)": {
        "details": "See {IERC721-transferFrom}."
      },
      "transferOwnership(address)": {
        "details": "Transfers ownership of the contract to a new account (`newOwner`). Can only be called by the current owner."
      }
    },
    "version": 1
  },
  "userdoc": {
    "kind": "user",
    "methods": {},
    "version": 1
  },
  "storageLayout": {
    "storage": [
      {
        "astId": 138,
        "contract": "contracts/NFTAirdrop.sol:NFTAirdrop",
        "label": "_name",
        "offset": 0,
        "slot": "0",
        "type": "t_string_storage"
      },
      {
        "astId": 140,
        "contract": "contracts/NFTAirdrop.sol:NFTAirdrop",
        "label": "_symbol",
        "offset": 0,
        "slot": "1",
        "type": "t_string_storage"
      },
      {
        "astId": 144,
        "contract": "contracts/NFTAirdrop.sol:NFTAirdrop",
        "label": "_owners",
        "offset": 0,
        "slot": "2",
        "type": "t_mapping(t_uint256,t_address)"
      },
      {
        "astId": 148,
        "contract": "contracts/NFTAirdrop.sol:NFTAirdrop",
        "label": "_balances",
        "offset": 0,
        "slot": "3",
        "type": "t_mapping(t_address,t_uint256)"
      },
      {
        "astId": 152,
        "contract": "contracts/NFTAirdrop.sol:NFTAirdrop",
        "label": "_tokenApprovals",
        "offset": 0,
        "slot": "4",
        "type": "t_mapping(t_uint256,t_address)"
      },
      {
        "astId": 158,
        "contract": "contracts/NFTAirdrop.sol:NFTAirdrop",
        "label": "_operatorApprovals",
        "offset": 0,
        "slot": "5",
        "type": "t_mapping(t_address,t_mapping(t_address,t_bool))"
      },
      {
        "astId": 1204,
        "contract": "contracts/NFTAirdrop.sol:NFTAirdrop",
        "label": "_tokenURIs",
        "offset": 0,
        "slot": "6",
        "type": "t_mapping(t_uint256,t_string_storage)"
      },
      {
        "astId": 7,
        "contract": "contracts/NFTAirdrop.sol:NFTAirdrop",
        "label": "_owner",
        "offset": 0,
        "slot": "7",
        "type": "t_address"
      },
      {
        "astId": 3295,
        "contract": "contracts/NFTAirdrop.sol:NFTAirdrop",
        "label": "nftTokenUris",
        "offset": 0,
        "slot": "8",
        "type": "t_array(t_string_storage)dyn_storage"
      },
      {
        "astId": 3297,
        "contract": "contracts/NFTAirdrop.sol:NFTAirdrop",
        "label": "tokenCounter",
        "offset": 0,
        "slot": "9",
        "type": "t_uint256"
      },
      {
        "astId": 3301,
        "contract": "contracts/NFTAirdrop.sol:NFTAirdrop",
        "label": "addressToNFTMinted",
        "offset": 0,
        "slot": "10",
        "type": "t_mapping(t_address,t_bool)"
      }
    ],
    "types": {
      "t_address": {
        "encoding": "inplace",
        "label": "address",
        "numberOfBytes": "20"
      },
      "t_array(t_string_storage)dyn_storage": {
        "base": "t_string_storage",
        "encoding": "dynamic_array",
        "label": "string[]",
        "numberOfBytes": "32"
      },
      "t_bool": {
        "encoding": "inplace",
        "label": "bool",
        "numberOfBytes": "1"
      },
      "t_mapping(t_address,t_bool)": {
        "encoding": "mapping",
        "key": "t_address",
        "label": "mapping(address => bool)",
        "numberOfBytes": "32",
        "value": "t_bool"
      },
      "t_mapping(t_address,t_mapping(t_address,t_bool))": {
        "encoding": "mapping",
        "key": "t_address",
        "label": "mapping(address => mapping(address => bool))",
        "numberOfBytes": "32",
        "value": "t_mapping(t_address,t_bool)"
      },
      "t_mapping(t_address,t_uint256)": {
        "encoding": "mapping",
        "key": "t_address",
        "label": "mapping(address => uint256)",
        "numberOfBytes": "32",
        "value": "t_uint256"
      },
      "t_mapping(t_uint256,t_address)": {
        "encoding": "mapping",
        "key": "t_uint256",
        "label": "mapping(uint256 => address)",
        "numberOfBytes": "32",
        "value": "t_address"
      },
      "t_mapping(t_uint256,t_string_storage)": {
        "encoding": "mapping",
        "key": "t_uint256",
        "label": "mapping(uint256 => string)",
        "numberOfBytes": "32",
        "value": "t_string_storage"
      },
      "t_string_storage": {
        "encoding": "bytes",
        "label": "string",
        "numberOfBytes": "32"
      },
      "t_uint256": {
        "encoding": "inplace",
        "label": "uint256",
        "numberOfBytes": "32"
      }
    }
  }
}