{
  "address": "0x5FbDB2315678afecb367f032d93F642f64180aa3",
  "abi": [
    {
      "inputs": [
        {
          "internalType": "bytes32",
          "name": "_root",
          "type": "bytes32"
        },
        {
          "internalType": "string",
          "name": "_name",
          "type": "string"
        },
        {
          "internalType": "string",
          "name": "_symbol",
          "type": "string"
        },
        {
          "internalType": "string[]",
          "name": "_nftTokenUris",
          "type": "string[]"
        }
      ],
      "stateMutability": "nonpayable",
      "type": "constructor"
    },
    {
      "inputs": [
        {
          "internalType": "address",
          "name": "caller",
          "type": "address"
        }
      ],
      "name": "NFTAirdrop__NFTAlreadyMinted",
      "type": "error"
    },
    {
      "inputs": [
        {
          "internalType": "address",
          "name": "caller",
          "type": "address"
        }
      ],
      "name": "NFTAirdrop__NotInTheAllowlist",
      "type": "error"
    },
    {
      "anonymous": false,
      "inputs": [
        {
          "indexed": true,
          "internalType": "address",
          "name": "owner",
          "type": "address"
        },
        {
          "indexed": true,
          "internalType": "address",
          "name": "approved",
          "type": "address"
        },
        {
          "indexed": true,
          "internalType": "uint256",
          "name": "tokenId",
          "type": "uint256"
        }
      ],
      "name": "Approval",
      "type": "event"
    },
    {
      "anonymous": false,
      "inputs": [
        {
          "indexed": true,
          "internalType": "address",
          "name": "owner",
          "type": "address"
        },
        {
          "indexed": true,
          "internalType": "address",
          "name": "operator",
          "type": "address"
        },
        {
          "indexed": false,
          "internalType": "bool",
          "name": "approved",
          "type": "bool"
        }
      ],
      "name": "ApprovalForAll",
      "type": "event"
    },
    {
      "anonymous": false,
      "inputs": [
        {
          "indexed": true,
          "internalType": "address",
          "name": "owner",
          "type": "address"
        },
        {
          "indexed": true,
          "internalType": "uint256",
          "name": "tokenId",
          "type": "uint256"
        },
        {
          "indexed": true,
          "internalType": "uint256",
          "name": "value",
          "type": "uint256"
        }
      ],
      "name": "NFTMinted",
      "type": "event"
    },
    {
      "anonymous": false,
      "inputs": [
        {
          "indexed": true,
          "internalType": "address",
          "name": "previousOwner",
          "type": "address"
        },
        {
          "indexed": true,
          "internalType": "address",
          "name": "newOwner",
          "type": "address"
        }
      ],
      "name": "OwnershipTransferred",
      "type": "event"
    },
    {
      "anonymous": false,
      "inputs": [
        {
          "indexed": true,
          "internalType": "address",
          "name": "from",
          "type": "address"
        },
        {
          "indexed": true,
          "internalType": "address",
          "name": "to",
          "type": "address"
        },
        {
          "indexed": true,
          "internalType": "uint256",
          "name": "tokenId",
          "type": "uint256"
        }
      ],
      "name": "Transfer",
      "type": "event"
    },
    {
      "inputs": [
        {
          "internalType": "address",
          "name": "to",
          "type": "address"
        },
        {
          "internalType": "uint256",
          "name": "tokenId",
          "type": "uint256"
        }
      ],
      "name": "approve",
      "outputs": [],
      "stateMutability": "nonpayable",
      "type": "function"
    },
    {
      "inputs": [
        {
          "internalType": "address",
          "name": "owner",
          "type": "address"
        }
      ],
      "name": "balanceOf",
      "outputs": [
        {
          "internalType": "uint256",
          "name": "",
          "type": "uint256"
        }
      ],
      "stateMutability": "view",
      "type": "function"
    },
    {
      "inputs": [
        {
          "internalType": "uint256",
          "name": "tokenId",
          "type": "uint256"
        }
      ],
      "name": "getApproved",
      "outputs": [
        {
          "internalType": "address",
          "name": "",
          "type": "address"
        }
      ],
      "stateMutability": "view",
      "type": "function"
    },
    {
      "inputs": [],
      "name": "getTokenId",
      "outputs": [
        {
          "internalType": "uint256",
          "name": "",
          "type": "uint256"
        }
      ],
      "stateMutability": "view",
      "type": "function"
    },
    {
      "inputs": [
        {
          "internalType": "address",
          "name": "owner",
          "type": "address"
        },
        {
          "internalType": "address",
          "name": "operator",
          "type": "address"
        }
      ],
      "name": "isApprovedForAll",
      "outputs": [
        {
          "internalType": "bool",
          "name": "",
          "type": "bool"
        }
      ],
      "stateMutability": "view",
      "type": "function"
    },
    {
      "inputs": [],
      "name": "name",
      "outputs": [
        {
          "internalType": "string",
          "name": "",
          "type": "string"
        }
      ],
      "stateMutability": "view",
      "type": "function"
    },
    {
      "inputs": [
        {
          "internalType": "uint256",
          "name": "",
          "type": "uint256"
        }
      ],
      "name": "nftTokenUris",
      "outputs": [
        {
          "internalType": "string",
          "name": "",
          "type": "string"
        }
      ],
      "stateMutability": "view",
      "type": "function"
    },
    {
      "inputs": [],
      "name": "owner",
      "outputs": [
        {
          "internalType": "address",
          "name": "",
          "type": "address"
        }
      ],
      "stateMutability": "view",
      "type": "function"
    },
    {
      "inputs": [
        {
          "internalType": "uint256",
          "name": "tokenId",
          "type": "uint256"
        }
      ],
      "name": "ownerOf",
      "outputs": [
        {
          "internalType": "address",
          "name": "",
          "type": "address"
        }
      ],
      "stateMutability": "view",
      "type": "function"
    },
    {
      "inputs": [
        {
          "internalType": "bytes32[]",
          "name": "_proof",
          "type": "bytes32[]"
        },
        {
          "internalType": "uint8",
          "name": "_tokenUriIndex",
          "type": "uint8"
        }
      ],
      "name": "preMintNFT",
      "outputs": [],
      "stateMutability": "payable",
      "type": "function"
    },
    {
      "inputs": [],
      "name": "renounceOwnership",
      "outputs": [],
      "stateMutability": "nonpayable",
      "type": "function"
    },
    {
      "inputs": [],
      "name": "root",
      "outputs": [
        {
          "internalType": "bytes32",
          "name": "",
          "type": "bytes32"
        }
      ],
      "stateMutability": "view",
      "type": "function"
    },
    {
      "inputs": [
        {
          "internalType": "address",
          "name": "from",
          "type": "address"
        },
        {
          "internalType": "address",
          "name": "to",
          "type": "address"
        },
        {
          "internalType": "uint256",
          "name": "tokenId",
          "type": "uint256"
        }
      ],
      "name": "safeTransferFrom",
      "outputs": [],
      "stateMutability": "nonpayable",
      "type": "function"
    },
    {
      "inputs": [
        {
          "internalType": "address",
          "name": "from",
          "type": "address"
        },
        {
          "internalType": "address",
          "name": "to",
          "type": "address"
        },
        {
          "internalType": "uint256",
          "name": "tokenId",
          "type": "uint256"
        },
        {
          "internalType": "bytes",
          "name": "data",
          "type": "bytes"
        }
      ],
      "name": "safeTransferFrom",
      "outputs": [],
      "stateMutability": "nonpayable",
      "type": "function"
    },
    {
      "inputs": [
        {
          "internalType": "address",
          "name": "operator",
          "type": "address"
        },
        {
          "internalType": "bool",
          "name": "approved",
          "type": "bool"
        }
      ],
      "name": "setApprovalForAll",
      "outputs": [],
      "stateMutability": "nonpayable",
      "type": "function"
    },
    {
      "inputs": [
        {
          "internalType": "bytes4",
          "name": "interfaceId",
          "type": "bytes4"
        }
      ],
      "name": "supportsInterface",
      "outputs": [
        {
          "internalType": "bool",
          "name": "",
          "type": "bool"
        }
      ],
      "stateMutability": "view",
      "type": "function"
    },
    {
      "inputs": [],
      "name": "symbol",
      "outputs": [
        {
          "internalType": "string",
          "name": "",
          "type": "string"
        }
      ],
      "stateMutability": "view",
      "type": "function"
    },
    {
      "inputs": [
        {
          "internalType": "uint256",
          "name": "tokenId",
          "type": "uint256"
        }
      ],
      "name": "tokenURI",
      "outputs": [
        {
          "internalType": "string",
          "name": "",
          "type": "string"
        }
      ],
      "stateMutability": "view",
      "type": "function"
    },
    {
      "inputs": [
        {
          "internalType": "address",
          "name": "from",
          "type": "address"
        },
        {
          "internalType": "address",
          "name": "to",
          "type": "address"
        },
        {
          "internalType": "uint256",
          "name": "tokenId",
          "type": "uint256"
        }
      ],
      "name": "transferFrom",
      "outputs": [],
      "stateMutability": "nonpayable",
      "type": "function"
    },
    {
      "inputs": [
        {
          "internalType": "address",
          "name": "newOwner",
          "type": "address"
        }
      ],
      "name": "transferOwnership",
      "outputs": [],
      "stateMutability": "nonpayable",
      "type": "function"
    }
  ],
  "transactionHash": "0xa31f96600cbb8b3a7e9bc7ca4ca1ab9874e06966bc98fca9f76c34021cfe7673",
  "args": [
    "0x407a32e7fe768aa7c4538906bd27df9c3191c11d608670adf935b56f824cc8c3",
    "Digital Critters Collection",
    "DCC",
    [
      "ipfs://QmUDDkTccKaTzLMcNAXNFkZdZTBaYsfD71nXQrhgCPEqLu",
      "ipfs://QmQn2JWskSmQTsQsYpyM6ZAc1UXmhK5iBH1QPeifSS6328",
      "ipfs://QmWwJL8Gt52XvipKLGvFLCwkBtFuV4SZwbR8hMRx2pKPx3",
      "ipfs://QmPYg1PvGiE5QKh9NZXLNciW8oTBRSpiKpZf5Qbk4o1e4q",
      "ipfs://QmWUFF9joFTiyECgWZAiRr83aA5khzY3gkKc1PZUS2qDU2",
      "ipfs://QmXvGNQw2fbky5XgqL7uoXKmbURQpyCJcgU8sQHuoHMQn6"
    ]
  ],
  "numDeployments": 1,
  "solcInputHash": "83b54fc341fd8a440b26c4d8b8507fdb",
  "bytecode": "0x60a06040523480156200001157600080fd5b5060405162003fbb38038062003fbb833981810160405281019062000037919062000537565b828281600090816200004a919062000851565b5080600190816200005c919062000851565b5050506200007f62000073620000b260201b60201c565b620000ba60201b60201c565b836080818152505080600890805190602001906200009f92919062000180565b5060006009819055505050505062000938565b600033905090565b6000600760009054906101000a900473ffffffffffffffffffffffffffffffffffffffff16905081600760006101000a81548173ffffffffffffffffffffffffffffffffffffffff021916908373ffffffffffffffffffffffffffffffffffffffff1602179055508173ffffffffffffffffffffffffffffffffffffffff168173ffffffffffffffffffffffffffffffffffffffff167f8be0079c531659141344cd1fd0a4f28419497f9722a3daafe3b4186f6b6457e060405160405180910390a35050565b828054828255906000526020600020908101928215620001cd579160200282015b82811115620001cc578251829081620001bb919062000851565b5091602001919060010190620001a1565b5b509050620001dc9190620001e0565b5090565b5b80821115620002045760008181620001fa919062000208565b50600101620001e1565b5090565b508054620002169062000640565b6000825580601f106200022a57506200024b565b601f0160209004906000526020600020908101906200024a91906200024e565b5b50565b5b80821115620002695760008160009055506001016200024f565b5090565b6000604051905090565b600080fd5b600080fd5b6000819050919050565b620002968162000281565b8114620002a257600080fd5b50565b600081519050620002b6816200028b565b92915050565b600080fd5b600080fd5b6000601f19601f8301169050919050565b7f4e487b7100000000000000000000000000000000000000000000000000000000600052604160045260246000fd5b6200031182620002c6565b810181811067ffffffffffffffff82111715620003335762000332620002d7565b5b80604052505050565b6000620003486200026d565b905062000356828262000306565b919050565b600067ffffffffffffffff821115620003795762000378620002d7565b5b6200038482620002c6565b9050602081019050919050565b60005b83811015620003b157808201518184015260208101905062000394565b60008484015250505050565b6000620003d4620003ce846200035b565b6200033c565b905082815260208101848484011115620003f357620003f2620002c1565b5b6200040084828562000391565b509392505050565b600082601f83011262000420576200041f620002bc565b5b815162000432848260208601620003bd565b91505092915050565b600067ffffffffffffffff821115620004595762000458620002d7565b5b602082029050602081019050919050565b600080fd5b60006200048662000480846200043b565b6200033c565b90508083825260208201905060208402830185811115620004ac57620004ab6200046a565b5b835b81811015620004fa57805167ffffffffffffffff811115620004d557620004d4620002bc565b5b808601620004e4898262000408565b85526020850194505050602081019050620004ae565b5050509392505050565b600082601f8301126200051c576200051b620002bc565b5b81516200052e8482602086016200046f565b91505092915050565b6000806000806080858703121562000554576200055362000277565b5b60006200056487828801620002a5565b945050602085015167ffffffffffffffff8111156200058857620005876200027c565b5b620005968782880162000408565b935050604085015167ffffffffffffffff811115620005ba57620005b96200027c565b5b620005c88782880162000408565b925050606085015167ffffffffffffffff811115620005ec57620005eb6200027c565b5b620005fa8782880162000504565b91505092959194509250565b600081519050919050565b7f4e487b7100000000000000000000000000000000000000000000000000000000600052602260045260246000fd5b600060028204905060018216806200065957607f821691505b6020821081036200066f576200066e62000611565b5b50919050565b60008190508160005260206000209050919050565b60006020601f8301049050919050565b600082821b905092915050565b600060088302620006d97fffffffffffffffffffffffffffffffffffffffffffffffffffffffffffffffff826200069a565b620006e586836200069a565b95508019841693508086168417925050509392505050565b6000819050919050565b6000819050919050565b6000620007326200072c6200072684620006fd565b62000707565b620006fd565b9050919050565b6000819050919050565b6200074e8362000711565b620007666200075d8262000739565b848454620006a7565b825550505050565b600090565b6200077d6200076e565b6200078a81848462000743565b505050565b5b81811015620007b257620007a660008262000773565b60018101905062000790565b5050565b601f8211156200080157620007cb8162000675565b620007d6846200068a565b81016020851015620007e6578190505b620007fe620007f5856200068a565b8301826200078f565b50505b505050565b600082821c905092915050565b6000620008266000198460080262000806565b1980831691505092915050565b600062000841838362000813565b9150826002028217905092915050565b6200085c8262000606565b67ffffffffffffffff811115620008785762000877620002d7565b5b62000884825462000640565b62000891828285620007b6565b600060209050601f831160018114620008c95760008415620008b4578287015190505b620008c0858262000833565b86555062000930565b601f198416620008d98662000675565b60005b828110156200090357848901518255600182019150602085019450602081019050620008dc565b868310156200092357848901516200091f601f89168262000813565b8355505b6001600288020188555050505b505050505050565b6080516136606200095b60003960008181610eff01526114ed01526136606000f3fe60806040526004361061011f5760003560e01c806370a08231116100a0578063b88d4fde11610064578063b88d4fde146103d8578063c87b56dd14610401578063e985e9c51461043e578063ebf0c7171461047b578063f2fde38b146104a65761011f565b806370a0823114610305578063715018a6146103425780638da5cb5b1461035957806395d89b4114610384578063a22cb465146103af5761011f565b80631888cfa5116100e75780631888cfa51461021d57806323b872dd1461025a57806342842e0e146102835780636352211e146102ac5780636feb4c9e146102e95761011f565b8063010a38f51461012457806301ffc9a71461014f57806306fdde031461018c578063081812fc146101b7578063095ea7b3146101f4575b600080fd5b34801561013057600080fd5b506101396104cf565b60405161014691906121cd565b60405180910390f35b34801561015b57600080fd5b5061017660048036038101906101719190612254565b6104d9565b604051610183919061229c565b60405180910390f35b34801561019857600080fd5b506101a16105bb565b6040516101ae9190612347565b60405180910390f35b3480156101c357600080fd5b506101de60048036038101906101d99190612395565b61064d565b6040516101eb9190612403565b60405180910390f35b34801561020057600080fd5b5061021b6004803603810190610216919061244a565b610693565b005b34801561022957600080fd5b50610244600480360381019061023f9190612395565b6107aa565b6040516102519190612347565b60405180910390f35b34801561026657600080fd5b50610281600480360381019061027c919061248a565b610856565b005b34801561028f57600080fd5b506102aa60048036038101906102a5919061248a565b6108b6565b005b3480156102b857600080fd5b506102d360048036038101906102ce9190612395565b6108d6565b6040516102e09190612403565b60405180910390f35b61030360048036038101906102fe9190612694565b61095c565b005b34801561031157600080fd5b5061032c600480360381019061032791906126f0565b610b58565b60405161033991906121cd565b60405180910390f35b34801561034e57600080fd5b50610357610c0f565b005b34801561036557600080fd5b5061036e610c23565b60405161037b9190612403565b60405180910390f35b34801561039057600080fd5b50610399610c4d565b6040516103a69190612347565b60405180910390f35b3480156103bb57600080fd5b506103d660048036038101906103d19190612749565b610cdf565b005b3480156103e457600080fd5b506103ff60048036038101906103fa919061283e565b610cf5565b005b34801561040d57600080fd5b5061042860048036038101906104239190612395565b610d57565b6040516104359190612347565b60405180910390f35b34801561044a57600080fd5b50610465600480360381019061046091906128c1565b610e69565b604051610472919061229c565b60405180910390f35b34801561048757600080fd5b50610490610efd565b60405161049d9190612910565b60405180910390f35b3480156104b257600080fd5b506104cd60048036038101906104c891906126f0565b610f21565b005b6000600954905090565b60007f80ac58cd000000000000000000000000000000000000000000000000000000007bffffffffffffffffffffffffffffffffffffffffffffffffffffffff1916827bffffffffffffffffffffffffffffffffffffffffffffffffffffffff191614806105a457507f5b5e139f000000000000000000000000000000000000000000000000000000007bffffffffffffffffffffffffffffffffffffffffffffffffffffffff1916827bffffffffffffffffffffffffffffffffffffffffffffffffffffffff1916145b806105b457506105b382610fa4565b5b9050919050565b6060600080546105ca9061295a565b80601f01602080910402602001604051908101604052809291908181526020018280546105f69061295a565b80156106435780601f1061061857610100808354040283529160200191610643565b820191906000526020600020905b81548152906001019060200180831161062657829003601f168201915b5050505050905090565b60006106588261100e565b6004600083815260200190815260200160002060009054906101000a900473ffffffffffffffffffffffffffffffffffffffff169050919050565b600061069e826108d6565b90508073ffffffffffffffffffffffffffffffffffffffff168373ffffffffffffffffffffffffffffffffffffffff160361070e576040517f08c379a0000000000000000000000000000000000000000000000000000000008152600401610705906129fd565b60405180910390fd5b8073ffffffffffffffffffffffffffffffffffffffff1661072d611059565b73ffffffffffffffffffffffffffffffffffffffff16148061075c575061075b81610756611059565b610e69565b5b61079b576040517f08c379a000000000000000000000000000000000000000000000000000000000815260040161079290612a8f565b60405180910390fd5b6107a58383611061565b505050565b600881815481106107ba57600080fd5b9060005260206000200160009150905080546107d59061295a565b80601f01602080910402602001604051908101604052809291908181526020018280546108019061295a565b801561084e5780601f106108235761010080835404028352916020019161084e565b820191906000526020600020905b81548152906001019060200180831161083157829003601f168201915b505050505081565b610867610861611059565b8261111a565b6108a6576040517f08c379a000000000000000000000000000000000000000000000000000000000815260040161089d90612b21565b60405180910390fd5b6108b18383836111af565b505050565b6108d183838360405180602001604052806000815250610cf5565b505050565b6000806108e2836114a8565b9050600073ffffffffffffffffffffffffffffffffffffffff168173ffffffffffffffffffffffffffffffffffffffff1603610953576040517f08c379a000000000000000000000000000000000000000000000000000000000815260040161094a90612b8d565b60405180910390fd5b80915050919050565b600a60003373ffffffffffffffffffffffffffffffffffffffff1673ffffffffffffffffffffffffffffffffffffffff16815260200190815260200160002060009054906101000a900460ff16156109eb57336040517fc318867a0000000000000000000000000000000000000000000000000000000081526004016109e29190612403565b60405180910390fd5b6109f4826114e5565b610a3557336040517f5cddcfb1000000000000000000000000000000000000000000000000000000008152600401610a2c9190612403565b60405180910390fd5b600060095490506001600954610a4b9190612bdc565b600981905550610a5b338261153f565b610b0e8160088460ff1681548110610a7657610a75612c10565b5b906000526020600020018054610a8b9061295a565b80601f0160208091040260200160405190810160405280929190818152602001828054610ab79061295a565b8015610b045780601f10610ad957610100808354040283529160200191610b04565b820191906000526020600020905b815481529060010190602001808311610ae757829003601f168201915b505050505061155d565b34813373ffffffffffffffffffffffffffffffffffffffff167f3a8a89b59a31c39a36febecb987e0657ab7b7c73b60ebacb44dcb9886c2d5c8a60405160405180910390a4505050565b60008073ffffffffffffffffffffffffffffffffffffffff168273ffffffffffffffffffffffffffffffffffffffff1603610bc8576040517f08c379a0000000000000000000000000000000000000000000000000000000008152600401610bbf90612cb1565b60405180910390fd5b600360008373ffffffffffffffffffffffffffffffffffffffff1673ffffffffffffffffffffffffffffffffffffffff168152602001908152602001600020549050919050565b610c176115ca565b610c216000611648565b565b6000600760009054906101000a900473ffffffffffffffffffffffffffffffffffffffff16905090565b606060018054610c5c9061295a565b80601f0160208091040260200160405190810160405280929190818152602001828054610c889061295a565b8015610cd55780601f10610caa57610100808354040283529160200191610cd5565b820191906000526020600020905b815481529060010190602001808311610cb857829003601f168201915b5050505050905090565b610cf1610cea611059565b838361170e565b5050565b610d06610d00611059565b8361111a565b610d45576040517f08c379a0000000000000000000000000000000000000000000000000000000008152600401610d3c90612b21565b60405180910390fd5b610d518484848461187a565b50505050565b6060610d628261100e565b6000600660008481526020019081526020016000208054610d829061295a565b80601f0160208091040260200160405190810160405280929190818152602001828054610dae9061295a565b8015610dfb5780601f10610dd057610100808354040283529160200191610dfb565b820191906000526020600020905b815481529060010190602001808311610dde57829003601f168201915b505050505090506000610e0c6118d6565b90506000815103610e21578192505050610e64565b600082511115610e56578082604051602001610e3e929190612d0d565b60405160208183030381529060405292505050610e64565b610e5f846118ed565b925050505b919050565b6000600560008473ffffffffffffffffffffffffffffffffffffffff1673ffffffffffffffffffffffffffffffffffffffff16815260200190815260200160002060008373ffffffffffffffffffffffffffffffffffffffff1673ffffffffffffffffffffffffffffffffffffffff16815260200190815260200160002060009054906101000a900460ff16905092915050565b7f000000000000000000000000000000000000000000000000000000000000000081565b610f296115ca565b600073ffffffffffffffffffffffffffffffffffffffff168173ffffffffffffffffffffffffffffffffffffffff1603610f98576040517f08c379a0000000000000000000000000000000000000000000000000000000008152600401610f8f90612da3565b60405180910390fd5b610fa181611648565b50565b60007f01ffc9a7000000000000000000000000000000000000000000000000000000007bffffffffffffffffffffffffffffffffffffffffffffffffffffffff1916827bffffffffffffffffffffffffffffffffffffffffffffffffffffffff1916149050919050565b61101781611955565b611056576040517f08c379a000000000000000000000000000000000000000000000000000000000815260040161104d90612b8d565b60405180910390fd5b50565b600033905090565b816004600083815260200190815260200160002060006101000a81548173ffffffffffffffffffffffffffffffffffffffff021916908373ffffffffffffffffffffffffffffffffffffffff160217905550808273ffffffffffffffffffffffffffffffffffffffff166110d4836108d6565b73ffffffffffffffffffffffffffffffffffffffff167f8c5be1e5ebec7d5bd14f71427d1e84f3dd0314c0f7b2291e5b200ac8c7c3b92560405160405180910390a45050565b600080611126836108d6565b90508073ffffffffffffffffffffffffffffffffffffffff168473ffffffffffffffffffffffffffffffffffffffff16148061116857506111678185610e69565b5b806111a657508373ffffffffffffffffffffffffffffffffffffffff1661118e8461064d565b73ffffffffffffffffffffffffffffffffffffffff16145b91505092915050565b8273ffffffffffffffffffffffffffffffffffffffff166111cf826108d6565b73ffffffffffffffffffffffffffffffffffffffff1614611225576040517f08c379a000000000000000000000000000000000000000000000000000000000815260040161121c90612e35565b60405180910390fd5b600073ffffffffffffffffffffffffffffffffffffffff168273ffffffffffffffffffffffffffffffffffffffff1603611294576040517f08c379a000000000000000000000000000000000000000000000000000000000815260040161128b90612ec7565b60405180910390fd5b6112a18383836001611996565b8273ffffffffffffffffffffffffffffffffffffffff166112c1826108d6565b73ffffffffffffffffffffffffffffffffffffffff1614611317576040517f08c379a000000000000000000000000000000000000000000000000000000000815260040161130e90612e35565b60405180910390fd5b6004600082815260200190815260200160002060006101000a81549073ffffffffffffffffffffffffffffffffffffffff02191690556001600360008573ffffffffffffffffffffffffffffffffffffffff1673ffffffffffffffffffffffffffffffffffffffff168152602001908152602001600020600082825403925050819055506001600360008473ffffffffffffffffffffffffffffffffffffffff1673ffffffffffffffffffffffffffffffffffffffff16815260200190815260200160002060008282540192505081905550816002600083815260200190815260200160002060006101000a81548173ffffffffffffffffffffffffffffffffffffffff021916908373ffffffffffffffffffffffffffffffffffffffff160217905550808273ffffffffffffffffffffffffffffffffffffffff168473ffffffffffffffffffffffffffffffffffffffff167fddf252ad1be2c89b69c2b068fc378daa952ba7f163c4a11628f55a4df523b3ef60405160405180910390a46114a38383836001611abc565b505050565b60006002600083815260200190815260200160002060009054906101000a900473ffffffffffffffffffffffffffffffffffffffff169050919050565b6000611538827f00000000000000000000000000000000000000000000000000000000000000003360405160200161151d9190612f2f565b60405160208183030381529060405280519060200120611ac2565b9050919050565b611559828260405180602001604052806000815250611ad9565b5050565b61156682611955565b6115a5576040517f08c379a000000000000000000000000000000000000000000000000000000000815260040161159c90612fbc565b60405180910390fd5b806006600084815260200190815260200160002090816115c59190613188565b505050565b6115d2611059565b73ffffffffffffffffffffffffffffffffffffffff166115f0610c23565b73ffffffffffffffffffffffffffffffffffffffff1614611646576040517f08c379a000000000000000000000000000000000000000000000000000000000815260040161163d906132a6565b60405180910390fd5b565b6000600760009054906101000a900473ffffffffffffffffffffffffffffffffffffffff16905081600760006101000a81548173ffffffffffffffffffffffffffffffffffffffff021916908373ffffffffffffffffffffffffffffffffffffffff1602179055508173ffffffffffffffffffffffffffffffffffffffff168173ffffffffffffffffffffffffffffffffffffffff167f8be0079c531659141344cd1fd0a4f28419497f9722a3daafe3b4186f6b6457e060405160405180910390a35050565b8173ffffffffffffffffffffffffffffffffffffffff168373ffffffffffffffffffffffffffffffffffffffff160361177c576040517f08c379a000000000000000000000000000000000000000000000000000000000815260040161177390613312565b60405180910390fd5b80600560008573ffffffffffffffffffffffffffffffffffffffff1673ffffffffffffffffffffffffffffffffffffffff16815260200190815260200160002060008473ffffffffffffffffffffffffffffffffffffffff1673ffffffffffffffffffffffffffffffffffffffff16815260200190815260200160002060006101000a81548160ff0219169083151502179055508173ffffffffffffffffffffffffffffffffffffffff168373ffffffffffffffffffffffffffffffffffffffff167f17307eab39ab6107e8899845ad3d59bd9653f200f220920489ca2b5937696c318360405161186d919061229c565b60405180910390a3505050565b6118858484846111af565b61189184848484611b34565b6118d0576040517f08c379a00000000000000000000000000000000000000000000000000000000081526004016118c7906133a4565b60405180910390fd5b50505050565b606060405180602001604052806000815250905090565b60606118f88261100e565b60006119026118d6565b90506000815111611922576040518060200160405280600081525061194d565b8061192c84611cbb565b60405160200161193d929190612d0d565b6040516020818303038152906040525b915050919050565b60008073ffffffffffffffffffffffffffffffffffffffff16611977836114a8565b73ffffffffffffffffffffffffffffffffffffffff1614159050919050565b6001811115611ab657600073ffffffffffffffffffffffffffffffffffffffff168473ffffffffffffffffffffffffffffffffffffffff1614611a2a5780600360008673ffffffffffffffffffffffffffffffffffffffff1673ffffffffffffffffffffffffffffffffffffffff1681526020019081526020016000206000828254611a2291906133c4565b925050819055505b600073ffffffffffffffffffffffffffffffffffffffff168373ffffffffffffffffffffffffffffffffffffffff1614611ab55780600360008573ffffffffffffffffffffffffffffffffffffffff1673ffffffffffffffffffffffffffffffffffffffff1681526020019081526020016000206000828254611aad9190612bdc565b925050819055505b5b50505050565b50505050565b600082611acf8584611d89565b1490509392505050565b611ae38383611ddf565b611af06000848484611b34565b611b2f576040517f08c379a0000000000000000000000000000000000000000000000000000000008152600401611b26906133a4565b60405180910390fd5b505050565b6000611b558473ffffffffffffffffffffffffffffffffffffffff16611ffc565b15611cae578373ffffffffffffffffffffffffffffffffffffffff1663150b7a02611b7e611059565b8786866040518563ffffffff1660e01b8152600401611ba0949392919061344d565b6020604051808303816000875af1925050508015611bdc57506040513d601f19601f82011682018060405250810190611bd991906134ae565b60015b611c5e573d8060008114611c0c576040519150601f19603f3d011682016040523d82523d6000602084013e611c11565b606091505b506000815103611c56576040517f08c379a0000000000000000000000000000000000000000000000000000000008152600401611c4d906133a4565b60405180910390fd5b805181602001fd5b63150b7a0260e01b7bffffffffffffffffffffffffffffffffffffffffffffffffffffffff1916817bffffffffffffffffffffffffffffffffffffffffffffffffffffffff191614915050611cb3565b600190505b949350505050565b606060006001611cca8461201f565b01905060008167ffffffffffffffff811115611ce957611ce86124e2565b5b6040519080825280601f01601f191660200182016040528015611d1b5781602001600182028036833780820191505090505b509050600082602001820190505b600115611d7e578080600190039150507f3031323334353637383961626364656600000000000000000000000000000000600a86061a8153600a8581611d7257611d716134db565b5b04945060008503611d29575b819350505050919050565b60008082905060005b8451811015611dd457611dbf82868381518110611db257611db1612c10565b5b6020026020010151612172565b91508080611dcc9061350a565b915050611d92565b508091505092915050565b600073ffffffffffffffffffffffffffffffffffffffff168273ffffffffffffffffffffffffffffffffffffffff1603611e4e576040517f08c379a0000000000000000000000000000000000000000000000000000000008152600401611e459061359e565b60405180910390fd5b611e5781611955565b15611e97576040517f08c379a0000000000000000000000000000000000000000000000000000000008152600401611e8e9061360a565b60405180910390fd5b611ea5600083836001611996565b611eae81611955565b15611eee576040517f08c379a0000000000000000000000000000000000000000000000000000000008152600401611ee59061360a565b60405180910390fd5b6001600360008473ffffffffffffffffffffffffffffffffffffffff1673ffffffffffffffffffffffffffffffffffffffff16815260200190815260200160002060008282540192505081905550816002600083815260200190815260200160002060006101000a81548173ffffffffffffffffffffffffffffffffffffffff021916908373ffffffffffffffffffffffffffffffffffffffff160217905550808273ffffffffffffffffffffffffffffffffffffffff16600073ffffffffffffffffffffffffffffffffffffffff167fddf252ad1be2c89b69c2b068fc378daa952ba7f163c4a11628f55a4df523b3ef60405160405180910390a4611ff8600083836001611abc565b5050565b6000808273ffffffffffffffffffffffffffffffffffffffff163b119050919050565b600080600090507a184f03e93ff9f4daa797ed6e38ed64bf6a1f010000000000000000831061207d577a184f03e93ff9f4daa797ed6e38ed64bf6a1f0100000000000000008381612073576120726134db565b5b0492506040810190505b6d04ee2d6d415b85acef810000000083106120ba576d04ee2d6d415b85acef810000000083816120b0576120af6134db565b5b0492506020810190505b662386f26fc1000083106120e957662386f26fc1000083816120df576120de6134db565b5b0492506010810190505b6305f5e1008310612112576305f5e1008381612108576121076134db565b5b0492506008810190505b612710831061213757612710838161212d5761212c6134db565b5b0492506004810190505b6064831061215a57606483816121505761214f6134db565b5b0492506002810190505b600a8310612169576001810190505b80915050919050565b600081831061218a57612185828461219d565b612195565b612194838361219d565b5b905092915050565b600082600052816020526040600020905092915050565b6000819050919050565b6121c7816121b4565b82525050565b60006020820190506121e260008301846121be565b92915050565b6000604051905090565b600080fd5b600080fd5b60007fffffffff0000000000000000000000000000000000000000000000000000000082169050919050565b612231816121fc565b811461223c57600080fd5b50565b60008135905061224e81612228565b92915050565b60006020828403121561226a576122696121f2565b5b60006122788482850161223f565b91505092915050565b60008115159050919050565b61229681612281565b82525050565b60006020820190506122b1600083018461228d565b92915050565b600081519050919050565b600082825260208201905092915050565b60005b838110156122f15780820151818401526020810190506122d6565b60008484015250505050565b6000601f19601f8301169050919050565b6000612319826122b7565b61232381856122c2565b93506123338185602086016122d3565b61233c816122fd565b840191505092915050565b60006020820190508181036000830152612361818461230e565b905092915050565b612372816121b4565b811461237d57600080fd5b50565b60008135905061238f81612369565b92915050565b6000602082840312156123ab576123aa6121f2565b5b60006123b984828501612380565b91505092915050565b600073ffffffffffffffffffffffffffffffffffffffff82169050919050565b60006123ed826123c2565b9050919050565b6123fd816123e2565b82525050565b600060208201905061241860008301846123f4565b92915050565b612427816123e2565b811461243257600080fd5b50565b6000813590506124448161241e565b92915050565b60008060408385031215612461576124606121f2565b5b600061246f85828601612435565b925050602061248085828601612380565b9150509250929050565b6000806000606084860312156124a3576124a26121f2565b5b60006124b186828701612435565b93505060206124c286828701612435565b92505060406124d386828701612380565b9150509250925092565b600080fd5b7f4e487b7100000000000000000000000000000000000000000000000000000000600052604160045260246000fd5b61251a826122fd565b810181811067ffffffffffffffff82111715612539576125386124e2565b5b80604052505050565b600061254c6121e8565b90506125588282612511565b919050565b600067ffffffffffffffff821115612578576125776124e2565b5b602082029050602081019050919050565b600080fd5b6000819050919050565b6125a18161258e565b81146125ac57600080fd5b50565b6000813590506125be81612598565b92915050565b60006125d76125d28461255d565b612542565b905080838252602082019050602084028301858111156125fa576125f9612589565b5b835b81811015612623578061260f88826125af565b8452602084019350506020810190506125fc565b5050509392505050565b600082601f830112612642576126416124dd565b5b81356126528482602086016125c4565b91505092915050565b600060ff82169050919050565b6126718161265b565b811461267c57600080fd5b50565b60008135905061268e81612668565b92915050565b600080604083850312156126ab576126aa6121f2565b5b600083013567ffffffffffffffff8111156126c9576126c86121f7565b5b6126d58582860161262d565b92505060206126e68582860161267f565b9150509250929050565b600060208284031215612706576127056121f2565b5b600061271484828501612435565b91505092915050565b61272681612281565b811461273157600080fd5b50565b6000813590506127438161271d565b92915050565b600080604083850312156127605761275f6121f2565b5b600061276e85828601612435565b925050602061277f85828601612734565b9150509250929050565b600080fd5b600067ffffffffffffffff8211156127a9576127a86124e2565b5b6127b2826122fd565b9050602081019050919050565b82818337600083830152505050565b60006127e16127dc8461278e565b612542565b9050828152602081018484840111156127fd576127fc612789565b5b6128088482856127bf565b509392505050565b600082601f830112612825576128246124dd565b5b81356128358482602086016127ce565b91505092915050565b60008060008060808587031215612858576128576121f2565b5b600061286687828801612435565b945050602061287787828801612435565b935050604061288887828801612380565b925050606085013567ffffffffffffffff8111156128a9576128a86121f7565b5b6128b587828801612810565b91505092959194509250565b600080604083850312156128d8576128d76121f2565b5b60006128e685828601612435565b92505060206128f785828601612435565b9150509250929050565b61290a8161258e565b82525050565b60006020820190506129256000830184612901565b92915050565b7f4e487b7100000000000000000000000000000000000000000000000000000000600052602260045260246000fd5b6000600282049050600182168061297257607f821691505b6020821081036129855761298461292b565b5b50919050565b7f4552433732313a20617070726f76616c20746f2063757272656e74206f776e6560008201527f7200000000000000000000000000000000000000000000000000000000000000602082015250565b60006129e76021836122c2565b91506129f28261298b565b604082019050919050565b60006020820190508181036000830152612a16816129da565b9050919050565b7f4552433732313a20617070726f76652063616c6c6572206973206e6f7420746f60008201527f6b656e206f776e6572206f7220617070726f76656420666f7220616c6c000000602082015250565b6000612a79603d836122c2565b9150612a8482612a1d565b604082019050919050565b60006020820190508181036000830152612aa881612a6c565b9050919050565b7f4552433732313a2063616c6c6572206973206e6f7420746f6b656e206f776e6560008201527f72206f7220617070726f76656400000000000000000000000000000000000000602082015250565b6000612b0b602d836122c2565b9150612b1682612aaf565b604082019050919050565b60006020820190508181036000830152612b3a81612afe565b9050919050565b7f4552433732313a20696e76616c696420746f6b656e2049440000000000000000600082015250565b6000612b776018836122c2565b9150612b8282612b41565b602082019050919050565b60006020820190508181036000830152612ba681612b6a565b9050919050565b7f4e487b7100000000000000000000000000000000000000000000000000000000600052601160045260246000fd5b6000612be7826121b4565b9150612bf2836121b4565b9250828201905080821115612c0a57612c09612bad565b5b92915050565b7f4e487b7100000000000000000000000000000000000000000000000000000000600052603260045260246000fd5b7f4552433732313a2061646472657373207a65726f206973206e6f74206120766160008201527f6c6964206f776e65720000000000000000000000000000000000000000000000602082015250565b6000612c9b6029836122c2565b9150612ca682612c3f565b604082019050919050565b60006020820190508181036000830152612cca81612c8e565b9050919050565b600081905092915050565b6000612ce7826122b7565b612cf18185612cd1565b9350612d018185602086016122d3565b80840191505092915050565b6000612d198285612cdc565b9150612d258284612cdc565b91508190509392505050565b7f4f776e61626c653a206e6577206f776e657220697320746865207a65726f206160008201527f6464726573730000000000000000000000000000000000000000000000000000602082015250565b6000612d8d6026836122c2565b9150612d9882612d31565b604082019050919050565b60006020820190508181036000830152612dbc81612d80565b9050919050565b7f4552433732313a207472616e736665722066726f6d20696e636f72726563742060008201527f6f776e6572000000000000000000000000000000000000000000000000000000602082015250565b6000612e1f6025836122c2565b9150612e2a82612dc3565b604082019050919050565b60006020820190508181036000830152612e4e81612e12565b9050919050565b7f4552433732313a207472616e7366657220746f20746865207a65726f2061646460008201527f7265737300000000000000000000000000000000000000000000000000000000602082015250565b6000612eb16024836122c2565b9150612ebc82612e55565b604082019050919050565b60006020820190508181036000830152612ee081612ea4565b9050919050565b60008160601b9050919050565b6000612eff82612ee7565b9050919050565b6000612f1182612ef4565b9050919050565b612f29612f24826123e2565b612f06565b82525050565b6000612f3b8284612f18565b60148201915081905092915050565b7f45524337323155524953746f726167653a2055524920736574206f66206e6f6e60008201527f6578697374656e7420746f6b656e000000000000000000000000000000000000602082015250565b6000612fa6602e836122c2565b9150612fb182612f4a565b604082019050919050565b60006020820190508181036000830152612fd581612f99565b9050919050565b60008190508160005260206000209050919050565b60006020601f8301049050919050565b600082821b905092915050565b60006008830261303e7fffffffffffffffffffffffffffffffffffffffffffffffffffffffffffffffff82613001565b6130488683613001565b95508019841693508086168417925050509392505050565b6000819050919050565b600061308561308061307b846121b4565b613060565b6121b4565b9050919050565b6000819050919050565b61309f8361306a565b6130b36130ab8261308c565b84845461300e565b825550505050565b600090565b6130c86130bb565b6130d3818484613096565b505050565b5b818110156130f7576130ec6000826130c0565b6001810190506130d9565b5050565b601f82111561313c5761310d81612fdc565b61311684612ff1565b81016020851015613125578190505b61313961313185612ff1565b8301826130d8565b50505b505050565b600082821c905092915050565b600061315f60001984600802613141565b1980831691505092915050565b6000613178838361314e565b9150826002028217905092915050565b613191826122b7565b67ffffffffffffffff8111156131aa576131a96124e2565b5b6131b4825461295a565b6131bf8282856130fb565b600060209050601f8311600181146131f257600084156131e0578287015190505b6131ea858261316c565b865550613252565b601f19841661320086612fdc565b60005b8281101561322857848901518255600182019150602085019450602081019050613203565b868310156132455784890151613241601f89168261314e565b8355505b6001600288020188555050505b505050505050565b7f4f776e61626c653a2063616c6c6572206973206e6f7420746865206f776e6572600082015250565b60006132906020836122c2565b915061329b8261325a565b602082019050919050565b600060208201905081810360008301526132bf81613283565b9050919050565b7f4552433732313a20617070726f766520746f2063616c6c657200000000000000600082015250565b60006132fc6019836122c2565b9150613307826132c6565b602082019050919050565b6000602082019050818103600083015261332b816132ef565b9050919050565b7f4552433732313a207472616e7366657220746f206e6f6e20455243373231526560008201527f63656976657220696d706c656d656e7465720000000000000000000000000000602082015250565b600061338e6032836122c2565b915061339982613332565b604082019050919050565b600060208201905081810360008301526133bd81613381565b9050919050565b60006133cf826121b4565b91506133da836121b4565b92508282039050818111156133f2576133f1612bad565b5b92915050565b600081519050919050565b600082825260208201905092915050565b600061341f826133f8565b6134298185613403565b93506134398185602086016122d3565b613442816122fd565b840191505092915050565b600060808201905061346260008301876123f4565b61346f60208301866123f4565b61347c60408301856121be565b818103606083015261348e8184613414565b905095945050505050565b6000815190506134a881612228565b92915050565b6000602082840312156134c4576134c36121f2565b5b60006134d284828501613499565b91505092915050565b7f4e487b7100000000000000000000000000000000000000000000000000000000600052601260045260246000fd5b6000613515826121b4565b91507fffffffffffffffffffffffffffffffffffffffffffffffffffffffffffffffff820361354757613546612bad565b5b600182019050919050565b7f4552433732313a206d696e7420746f20746865207a65726f2061646472657373600082015250565b60006135886020836122c2565b915061359382613552565b602082019050919050565b600060208201905081810360008301526135b78161357b565b9050919050565b7f4552433732313a20746f6b656e20616c7265616479206d696e74656400000000600082015250565b60006135f4601c836122c2565b91506135ff826135be565b602082019050919050565b60006020820190508181036000830152613623816135e7565b905091905056fea2646970667358221220646a703fb25cc3d6d6e7bc0c721d174d61530735970a10fb20321e5daf5d213a64736f6c63430008110033",
  "devdoc": {
    "events": {
      "NFTMinted(address,uint256,uint256)": {
        "details": "This event will be emitted inside mintNft function.",
        "params": {
          "owner": "will be address who call the mintNft function.",
          "tokenId": "will be the token id which user will have minted.",
          "value": "will be the amount on which NFT will be minted."
        }
      }
    },
    "kind": "dev",
    "methods": {
      "approve(address,uint256)": {
        "details": "See {IERC721-approve}."
      },
      "balanceOf(address)": {
        "details": "See {IERC721-balanceOf}."
      },
      "constructor": {
        "params": {
          "_name": "will be the name of the token.",
          "_nftTokenUris": "will be the token metadata ipfs hashes.",
          "_root": "will be the root hash of the merkle tree.",
          "_symbol": "will be the symbol of the token."
        }
      },
      "getApproved(uint256)": {
        "details": "See {IERC721-getApproved}."
      },
      "isApprovedForAll(address,address)": {
        "details": "See {IERC721-isApprovedForAll}."
      },
      "name()": {
        "details": "See {IERC721Metadata-name}."
      },
      "owner()": {
        "details": "Returns the address of the current owner."
      },
      "ownerOf(uint256)": {
        "details": "See {IERC721-ownerOf}."
      },
      "preMintNFT(bytes32[],uint8)": {
        "params": {
          "_proof": "will be the hex value of proof with the give caller address generated from the merkle tree.",
          "_tokenUriIndex": "will be the index number of NFT Uri select by the user."
        }
      },
      "renounceOwnership()": {
        "details": "Leaves the contract without owner. It will not be possible to call `onlyOwner` functions anymore. Can only be called by the current owner. NOTE: Renouncing ownership will leave the contract without an owner, thereby removing any functionality that is only available to the owner."
      },
      "safeTransferFrom(address,address,uint256)": {
        "details": "See {IERC721-safeTransferFrom}."
      },
      "safeTransferFrom(address,address,uint256,bytes)": {
        "details": "See {IERC721-safeTransferFrom}."
      },
      "setApprovalForAll(address,bool)": {
        "details": "See {IERC721-setApprovalForAll}."
      },
      "supportsInterface(bytes4)": {
        "details": "See {IERC165-supportsInterface}."
      },
      "symbol()": {
        "details": "See {IERC721Metadata-symbol}."
      },
      "tokenURI(uint256)": {
        "details": "See {IERC721Metadata-tokenURI}."
      },
      "transferFrom(address,address,uint256)": {
        "details": "See {IERC721-transferFrom}."
      },
      "transferOwnership(address)": {
        "details": "Transfers ownership of the contract to a new account (`newOwner`). Can only be called by the current owner."
      }
    },
    "version": 1
  },
  "userdoc": {
    "kind": "user",
    "methods": {},
    "version": 1
  },
  "storageLayout": {
    "storage": [
      {
        "astId": 138,
        "contract": "contracts/NFTAirdrop.sol:NFTAirdrop",
        "label": "_name",
        "offset": 0,
        "slot": "0",
        "type": "t_string_storage"
      },
      {
        "astId": 140,
        "contract": "contracts/NFTAirdrop.sol:NFTAirdrop",
        "label": "_symbol",
        "offset": 0,
        "slot": "1",
        "type": "t_string_storage"
      },
      {
        "astId": 144,
        "contract": "contracts/NFTAirdrop.sol:NFTAirdrop",
        "label": "_owners",
        "offset": 0,
        "slot": "2",
        "type": "t_mapping(t_uint256,t_address)"
      },
      {
        "astId": 148,
        "contract": "contracts/NFTAirdrop.sol:NFTAirdrop",
        "label": "_balances",
        "offset": 0,
        "slot": "3",
        "type": "t_mapping(t_address,t_uint256)"
      },
      {
        "astId": 152,
        "contract": "contracts/NFTAirdrop.sol:NFTAirdrop",
        "label": "_tokenApprovals",
        "offset": 0,
        "slot": "4",
        "type": "t_mapping(t_uint256,t_address)"
      },
      {
        "astId": 158,
        "contract": "contracts/NFTAirdrop.sol:NFTAirdrop",
        "label": "_operatorApprovals",
        "offset": 0,
        "slot": "5",
        "type": "t_mapping(t_address,t_mapping(t_address,t_bool))"
      },
      {
        "astId": 1204,
        "contract": "contracts/NFTAirdrop.sol:NFTAirdrop",
        "label": "_tokenURIs",
        "offset": 0,
        "slot": "6",
        "type": "t_mapping(t_uint256,t_string_storage)"
      },
      {
        "astId": 7,
        "contract": "contracts/NFTAirdrop.sol:NFTAirdrop",
        "label": "_owner",
        "offset": 0,
        "slot": "7",
        "type": "t_address"
      },
      {
        "astId": 3295,
        "contract": "contracts/NFTAirdrop.sol:NFTAirdrop",
        "label": "nftTokenUris",
        "offset": 0,
        "slot": "8",
        "type": "t_array(t_string_storage)dyn_storage"
      },
      {
        "astId": 3297,
        "contract": "contracts/NFTAirdrop.sol:NFTAirdrop",
        "label": "tokenCounter",
        "offset": 0,
        "slot": "9",
        "type": "t_uint256"
      },
      {
        "astId": 3301,
        "contract": "contracts/NFTAirdrop.sol:NFTAirdrop",
        "label": "addressToNFTMinted",
        "offset": 0,
        "slot": "10",
        "type": "t_mapping(t_address,t_bool)"
      }
    ],
    "types": {
      "t_address": {
        "encoding": "inplace",
        "label": "address",
        "numberOfBytes": "20"
      },
      "t_array(t_string_storage)dyn_storage": {
        "base": "t_string_storage",
        "encoding": "dynamic_array",
        "label": "string[]",
        "numberOfBytes": "32"
      },
      "t_bool": {
        "encoding": "inplace",
        "label": "bool",
        "numberOfBytes": "1"
      },
      "t_mapping(t_address,t_bool)": {
        "encoding": "mapping",
        "key": "t_address",
        "label": "mapping(address => bool)",
        "numberOfBytes": "32",
        "value": "t_bool"
      },
      "t_mapping(t_address,t_mapping(t_address,t_bool))": {
        "encoding": "mapping",
        "key": "t_address",
        "label": "mapping(address => mapping(address => bool))",
        "numberOfBytes": "32",
        "value": "t_mapping(t_address,t_bool)"
      },
      "t_mapping(t_address,t_uint256)": {
        "encoding": "mapping",
        "key": "t_address",
        "label": "mapping(address => uint256)",
        "numberOfBytes": "32",
        "value": "t_uint256"
      },
      "t_mapping(t_uint256,t_address)": {
        "encoding": "mapping",
        "key": "t_uint256",
        "label": "mapping(uint256 => address)",
        "numberOfBytes": "32",
        "value": "t_address"
      },
      "t_mapping(t_uint256,t_string_storage)": {
        "encoding": "mapping",
        "key": "t_uint256",
        "label": "mapping(uint256 => string)",
        "numberOfBytes": "32",
        "value": "t_string_storage"
      },
      "t_string_storage": {
        "encoding": "bytes",
        "label": "string",
        "numberOfBytes": "32"
      },
      "t_uint256": {
        "encoding": "inplace",
        "label": "uint256",
        "numberOfBytes": "32"
      }
    }
  }
}